:020000040800F2
:1000000098090020310200082F1E0008331D000847
:100010002D1E000853060008752700080000000088
:10002000000000000000000000000000A9210008FE
:100030009906000800000000311E0008AB210008EE
:100040004B0200084B0200084B0200084B0200085C
:100050004B0200084B0200084B0200084B0200084C
:100060004B0200084B0200084B0200084B0200083C
:100070004B0200084B0200084B0200084B0200082C
:100080004B0200084B0200084B0200084B0200081C
:100090004B0200084B0200084B0200084B0200080C
:1000A0004B0200084B0200084B0200084B020008FC
:1000B0004B0200084B0200084B0200084B020008EC
:1000C0004B0200084B0200084B0200084B020008DC
:1000D0004B020008612700084B0200084B02000891
:1000E0004B0200084B0200084B0200084B020008BC
:1000F0004B0200084B0200084B0200084B020008AC
:100100004B0200084B0200084B0200084B0200089B
:100110004B0200084B0200084B0200084B0200088B
:100120004B0200084B0200084B0200084B0200087B
:100130004B0200084B0200084B0200084B0200086B
:100140004B0200084B0200084B0200084B0200085B
:1001500055060008610600084B0200084B02000823
:100160004B0200084B0200084B0200084B0200083B
:100170004B0200084B0200080000000000000000D5
:100180004B0200084B02000800F002F800F041F8B2
:100190000AA090E8000C82448344AAF10107DA45E2
:1001A00001D100F036F8AFF2090EBAE80F0013F0F3
:1001B000010F18BFFB1A43F001031847682700001E
:1001C00088270000103A24BF78C878C1FAD85207AF
:1001D00024BF30C830C144BF04680C6070470000C1
:1001E0000023002400250026103A28BF78C1FBD840
:1001F000520728BF30C148BF0B607047642900F028
:10020000EF80002070471FB502F062FB1FBD10B5E4
:1002100010BD00F0E5F91146FFF7F5FF02F0C0FA56
:1002200000F003FA03B4FFF7F2FF03BC00F00AFA90
:100230000948804709480047FEE7FEE7FEE7FEE77A
:10024000FEE7FEE7FEE7FEE7FEE7FEE704480549B6
:10025000054A064B704700001D220008890100086E
:100260009803002098090020980500209805002098
:1002700053EA020C00F069802DE9F04B4FF00006C4
:10028000002B1FBFB3FA83F503FA05F424FA05F631
:100290005E4012BF1643B2FA82F502FA05F4C5F1C8
:1002A00020051EBF22FA05FC44EA0C04203556EA5C
:1002B000044C4FEA144418BF641C4FF000084FF080
:1002C0000009904271EB030C39D3002919BFB1FA30
:1002D00081F701FA07F6B0FA80F700FA07F6C7F1DE
:1002E00020071EBF20FA07FC46EA0C062037B6FBA3
:1002F000F4FCA7EB0507103F07F01F0BCBF120061E
:100300002CFA06F60CFA0BFB44BFB3460026202F4E
:10031000A4BF5E464FF0000B5BEA060C08BF4FF02F
:10032000010B19EB0B0948EB0608ABFB027C06FB43
:1003300002CC0BFB03CCC01B71EB0C01C1E70B46DD
:10034000024641464846BDE8F08B13B54FF0000029
:100350004FF00001AFF30080BDE81C407047000083
:100360000FB4044910B503AA029800F00FF910BCAD
:100370005DF814FB080100202DE9F0410E4604460B
:10038000002020622046E168884730B3252805D048
:10039000D4E901219047206A401CF2E7E168204639
:1003A00000278847050018D0A5F14100192802D878
:1003B00020354FF400673246294620462760FFF774
:1003C0001DFF40B1012804D0F61D26F007060836AF
:1003D000D8E7361DD6E72846DAE7206ABDE8F0817F
:1003E0002DE9F0410646002410687529314616A50E
:1003F00010D0AFF30080002802DA404213A507E0D6
:1004000031688A0701D512A502E0490704D511A574
:10041000012401E0AFF3008000210A2206F1240745
:1004200009E0B0FBF2FCB0FBF2F302FB1C00303041
:1004300078541846491C0028F3D123462A463046F2
:10044000BDE8F04100F048B8000000002D000000B9
:100450002B0000002000000010B5044603E002F06D
:100460008DF9401C09D014F8010B05490028F6D17C
:10047000BDE810400A2002F081B94FF0FF3010BDF6
:10048000080100204FF0000200B51346944696463E
:10049000203922BFA0E80C50A0E80C50B1F1200197
:1004A000BFF4F7AF090728BFA0E80C5048BF0CC045
:1004B0005DF804EB890028BF40F8042B08BF7047A3
:1004C00048BF20F8022B11F0804F18BF00F8012B15
:1004D00070477047704770472DE9F0470D469946C1
:1004E0009246044600F124080168880604D5E069B4
:1004F00021F01001216000E00120A84201DD471B2E
:1005000000E00027A1697A1902EB0900081AA0612E
:100510002078C00602D42046AFF30080002608E011
:10052000D4E901211AF806009047206A401C761C85
:1005300020624E45F4DB2078C0060AD52046AFF392
:10054000008006E0D4E9012130209047206A401C59
:100550002062381EA7F10107F4DC07E0D4E901218D
:1005600018F805009047206A401C2062281EA5F15B
:100570000105F3DC2046AFF300802078000602D5A9
:100580000220BDE8F0870120FBE70000074B70B5B3
:100590000D467B4400F011F80446284602F0EBF8C3
:1005A00010B14FF0FF3070BD204670BDE721000054
:1005B00001694A1C02610878704700B58FB0CDE927
:1005C00001310021059105497944CDE90310114617
:1005D0006846FFF7D1FE0FB000BD0000E5FFFFFF4A
:1005E000754600F02BF8AE4605006946534620F0EC
:1005F0000700854618B020B5FFF728FEBDE820406B
:100600004FF000064FF000074FF000084FF0000BCE
:10061000AC46ACE8C009ACE8C009ACE8C009ACE83D
:10062000C00921F007018D46704710B50446AFF3AD
:1006300000802046BDE81040FFF7F4BD0048704739
:100640001000002001491820ABBEFEE72600020082
:100650007047FEE7014800F06BB800BFC000002003
:10066000014800F065B800BF7000002010B5D0E967
:1006700010CE01240EF01C0E04FA0EF4CCF8044047
:100680000468636080681028084608BF1046A060B0
:1006900008BF0A46E26010BD7047704790F8251009
:1006A000022914D1016801230A6822F00E020A60AF
:1006B0000A6822F001020A60D0E9101202F01C025E
:1006C00003FA02F24A60002180F8253002E004219A
:1006D000C1630121002280F824200846704790F869
:1006E000251002291DD1016801230A6822F00E029B
:1006F0000A600A6822F001020A60D0E9101202F0D2
:100700001C0203FA02F24A60002180F8241080F8EB
:100710002530826B42B180B590470021BDE8804012
:1007200002E00421C163012108467047C06B704795
:10073000B0B5D0E910C4DCF80010026804F01C0E5B
:10074000136813F0040F1EBF042404FA0EF414EA15
:10075000010519D19C0723D5022404FA0EF414EAEA
:1007600001051DD0116811F0200F06D1116821F08C
:100770000A011160012180F825100021CCF8044005
:1007800080F82410C16A23E0116811F0200F02BF25
:10079000116821F004011160CCF80440016B17E0EE
:1007A0001B0719D5082303FA0EF3194008BFB0BD83
:1007B000116821F00E011160012101FA0EF2CCF84E
:1007C00004200022C16380F8242080F82510416BAA
:1007D00011B1BDE8B0400847B0BD0000002854D0BA
:1007E0002DE9F04F02212A4D142400F1080780F86A
:1007F00025102849026805F1080CAB46624538BF50
:10080000A5F5806538BF01F580611144B1FBF4F1B5
:1008100047F6F0744FEA810EC0E9105E156825EACC
:100820000408D0CFD0E9053AD0E9075948EA0401D5
:10083000B4F5804F41EA060141EA070141EA0301AC
:1008400041EA0A0141EA050141EA0901116012D0B9
:100850000BF1A80162450EF01C034FF00F0738BFE3
:10086000ABF556719F400A68BA430A6042680F6848
:100870009A403A430A6000210122C16380F82410A3
:1008800080F8252000F008B800E0012108467047F4
:1008900000040240F8FBFDBF30BCBDE8C04FFFF7CD
:1008A000F3BF10B5044694F82400012820D001209D
:1008B00084F8240094F82500012816D1022084F839
:1008C00025000020E063D4F800C0DCF8000020F030
:1008D0000100CCF800002046FFF7C8FE2068226B1C
:1008E00001683AB141F00E010AE0002084F82400CA
:1008F00002200BE021F004010160016841F00A01CF
:100900000160016841F0010101600020C0B210BD2A
:10091000B0B5044600F0ECF805469148611C40680B
:1009200018BF044400F0E4F8401BA042FAD3B0BD65
:100930002DE9FF4F624A07274FF0000A4FF0000EE3
:100940000026904200F138424FEAB22308BF062742
:10095000062B38BF4FEAB22700F12C020092021D8D
:10096000019702920B6833FA06F708BF00F0B4B89B
:10097000012202FA06F713EA070B00F09480D1F87F
:1009800004C04CF01004122C11D10EF01C050F22E3
:1009900002FA05F44E4A02EA56020244136AA343DD
:1009A0000C6904FA05F52B431362D1F804C0032344
:1009B00004680CF00309BCF1120F03FA0AF309FAF8
:1009C0000AF224EA03046FEA030842EA040202601E
:1009D0006FD8012202FA0CF212F0061F69D0826869
:1009E000CB68042502EA080203FA0AF31A4382607C
:1009F000029C2CFA05F2236802F00102B240BB43CC
:100A00001A432260C2688B6802EA080203FA0AF3FA
:100A10001A43C2605FEACC0245D52C4A0EF00C079F
:100A20000F25BD4013461A6842F001021A601A6889
:100A3000244B02F001021C46039226F00302039BA2
:100A40002244244B9C4652F80C30AB43019D05FADE
:100A500007F73B4342F80C3022684F6842EA0B0329
:100A600017F4803F08BF22EA0B0317F4003F23600E
:100A7000626842EA0B0308BF22EA0B0317F4801FE7
:100A80006360A26842EA0B0308BF22EA0B030E4A26
:100A900017F4001FA36015462A6842EA0B0308BF3B
:100AA00022EA0B032B600AF1020A0EF1040E013652
:100AB00058E7B9F1030FA5D1009C032599E700BFC2
:100AC00000180048000401400C040140601002407E
:100AD000FCFFFF7F08FCFFFF1FBCBDE8E08F00F1BB
:100AE0001803002A08BF00F12803196070470000AE
:100AF0001B488068704700BF1948416882681144EC
:100B00008160704780B5032000F080F8002000F07D
:100B100007F808B1012080BD00F024F8002080BD56
:100B200070B50F4E04467068B0B14FF47A71B1FBE6
:100B3000F0F055490968B1FBF0F000F009FE01251D
:100B40000F2C0AD848B94FF0FF302146002200256B
:100B500000F030F8346000E00125284670BD00BF89
:100B60000000002082B00B48816841F001018160E3
:100B7000816801F0010101910199016841F0805102
:100B80000160006800F0805000900098042002B0DE
:100B900000F03CB858100240002808DB00F01F01AC
:100BA0000122400902FA01F1014A42F8201070477F
:100BB00000E100E0B0B500F00F031A4D124CB0F1A7
:100BC000FF3FA3F104032B4403F10C03C8BF031937
:100BD0002868C0F30220051DC41E80F00700072D01
:100BE0004FF0010538BF0024042828BF042005FA6F
:100BF00000F00138084005FA04F10F31A04011401F
:100C0000084300011870B0BD00E400E005494FF64C
:100C1000FF030A681A4060F30A2203481043086081
:100C2000704700BF0CED00E00000FA05F249B0F596
:100C3000007F0A6802F4C0621BD1B2F5007F20D0A9
:100C40000868012262F34A20322208600E480068D8
:100C500050430E4AB0FBF2F0C0434A6918B101306C
:100C600012F48062F9D1486910F4806F09D0032032
:100C700008E0B2F5806F04D00868022262F34A20CF
:100C800008600020C0B270470C00002040420F00F6
:100C9000D948006800F4C060704700BF2DE9FC47E8
:100CA0000446D44F6078000721D5606E4FEAB051FA
:100CB000032908D8DFE801F002091216201D0021DF
:100CC00001F0B8F806E0012612E004F1200000214E
:100CD00001F042F906465EB9606E03E0396841F4FE
:100CE00080313960F96F21F440010843F86700262C
:100CF0006078C00601D4B2462BE0A06E4FEA3060A7
:100D0000032809D8B246DFE800F0020C1318201DB2
:100D1000002101F08FF809E04FF0010A4FF00108BF
:100D200018E004F12000002101F016F9824604E0E9
:100D30003868B24640F480303860BAF1000FD046CF
:100D400008D1F86FA16E4FF0000A20F04070084300
:100D5000F867B046A078800701D4C24668E0F86C16
:100D600010F0805F0BD1F86C4FF0010940F080501B
:100D7000F864F86C00F080500190019801E04FF0A9
:100D800000099D4D286840F480702860FFF7B0FE90
:100D90000646286810F4807F07D1FFF7A9FE801B64
:100DA0000228F6D94FF0030A3BE0BAF1000F38D120
:100DB000D7F8840010F4407029D0D4F88410884209
:100DC00011D0D7F88400D7F8841041F4803120F492
:100DD0004070C7F88410D7F8841021F48031C7F828
:100DE0008410C7F88400C00711D0FFF781FE0646C3
:100DF00041F288354FF0030AD7F8840010F0020F53
:100E000005D1FFF775FE801BA842F5D909E0D7F898
:100E10008400D4F88410C24620F440700843C7F818
:100E20008400B9F1000F1EBFF86C20F08050F86408
:100E3000206810F0010F05D0F96FA26B21F00301BB
:100E40001143F967810705D5F96FE26B21F00C01B9
:100E50001143F967410705D5F96F226C21F0300184
:100E60001143F967010705D5F96F626C21F0C001E4
:100E70001143F967C10605D5F96FA26C21F44071E1
:100E80001143F967810605D5F96FE26C21F44061E1
:100E90001143F967810505D5F96FE26D21F4402111
:100EA0001143F967410505D5F96F226E21F4401110
:100EB0001143F967410605D5F96F226D21F44051C0
:100EC0001143F967010605D5F96F626D21F44041C0
:100ED0001143F967C10505D5F96FA26D21F44031C1
:100EE0001143F967810419D5FA6FE16E22F040626F
:100EF000B1F1806F42EA0102FA6707D0B1F1006FE9
:100F00000CD1396841F48011396007E0201D0121BE
:100F100000F090FF002818BF82462068010319D511
:100F2000FA6F216F22F04062B1F1806F42EA010254
:100F3000FA6707D0B1F1006F0CD1396841F4801124
:100F4000396007E0201D012100F074FF002818BF60
:100F500082462068410319D5FA6F616F22F0406222
:100F6000B1F1806F42EA0102FA6707D0B1F1006F78
:100F70000CD1396841F48011396007E0201D01214E
:100F800000F058FF002818BF82462068400419D599
:100F9000F96FA06F21F04051B0F1005F41EA00010C
:100FA000F96707D0B0F1805F0CD1201D022100F05D
:100FB00041FF04E004F12000022100F0CDFF0028F1
:100FC00018BF8246206810F4004F05D0F96FE26F19
:100FD00021F080411143F967C00306D5F86FD4F8BA
:100FE000801020F000400843F867504602B0BDE88A
:100FF000F08700BF0C100240007000402DE9F04166
:1010000004468846002C00F086807C4E4FF48050C9
:10101000315801F0070141450AD2315821F007014A
:1010200041EA08013150305800F00700404572D1C4
:10103000206810F0010F31D06068022806D0032824
:1010400009D1316811F0007F0CD164E0316811F4EE
:10105000003F07D15FE0316810B1490502D45AE082
:10106000890758D5B168354621F003010843B060BF
:10107000FFF73EFD064641F28837284680686168E2
:1010800000F00C00B0EB810F06D0FFF731FD801BA4
:10109000B842F2D903203FE020682E46810705D5EB
:1010A000B168A26821F0F0011143B1604FF48051A2
:1010B000725802F0070242450AD9725822F007021C
:1010C00042EA08027250715801F00701414522D1ED
:1010D000410705D5B168E26821F4E0611143B160D0
:1010E000000706D5B068216920F4605040EAC100CD
:1010F000B06000F037F8B168094AC1F30311515CE0
:1011000001F01F01C8401449086006480068BDE8A6
:10111000F041FFF705BD0120C0B2BDE8F08100BF7E
:10112000DA280008000000200B480C490C4A00682F
:101130000968C1F30221515C01F01F01C8407047EA
:1011400005480649064A00680968C1F3C221515C96
:1011500001F01F01C84070470C0000200810024039
:10116000EA28000825498A68C86812F00C0205D0F0
:101170000C2A21D100F0030001281DD10868224B60
:1011800010F0080F19BF08680009D1F89400000A90
:10119000002A00F00F0053F8200008BF70470C2A07
:1011A0001CBF00207047CA6802F00302022A0DD05B
:1011B000032A08BF13480AE002F00F00042804BF06
:1011C0000F487047082816D10E4870470C48D1F8D0
:1011D0000CC0CB68C9680222C1F3416102EB410136
:1011E000C3F306225043CCF302120132B0FBF2F0FB
:1011F000B0FBF1F070470020D1E700BF00100240C3
:101200000024F40000127A00F42800082DE9FC47BD
:101210000446002C00F00282DC49DD4E48688A4614
:1012200000F00C08886800F003092078C00629D473
:101230002078C0077BD0B8F1080F70D0B8F10C0F40
:1012400008BFB9F1030F6AD06768B7F5803F07D0D0
:101250003068B7F5A02F40F0138240F48020306052
:10126000306840F480303060FFF742FC054630685B
:1012700010F4003F5BD1FFF73BFC411B03206429C6
:10128000F5D9CCE1B8F1000F1CD0B8F10C0F08BFB4
:10129000B9F1010F16D0A1693068002900F09B80D8
:1012A00040F001003060FFF723FC0546306810F085
:1012B000020F40F0A280FFF71BFC411B0320022914
:1012C000F4D9ACE13068554610F0020F03D0A069A4
:1012D000002800F0A381206A316811F0080F06BFD2
:1012E000D5F890100909316801F0F001884249D918
:1012F00000F0BCFE002840F09181306840F008000A
:1013000030603068216A20F0F000084330602868BF
:10131000E16920F47F4040EA0120286047E030681E
:1013200010F4003F03D06068002800F07781207837
:10133000800740F18E80B8F1040F1AD0B8F10C0F7D
:1013400008BFB9F1020F14D0E1683068002967D0F6
:1013500040F480703060FFF7CBFB0546306810F436
:10136000806F6ED1FFF7C4FB411B03200229F5D922
:1013700055E13068524610F4806F63D0E068002871
:1013800060D14BE1316841F008013160316821F0F2
:10139000F001014331602968E26921F47F4141EAAB
:1013A0000221296000F062FE002840F03781FFF73B
:1013B000D9FE6968DE4AC1F30311515C01F01F01D7
:1013C000C840DC490860DC480068FFF7A9FB00283A
:1013D00040F025812CE720F001003060FFF788FB0A
:1013E0000546306810F0020F3FF422AFFFF780FB94
:1013F000411B03200229F4D911E13068524640F024
:10140000080030603068216A20F0F0000843306046
:101410001068E16920F47F4040EA0120106007E78E
:1014200020F480703060FFF763FB0546306810F4ED
:10143000806F0ED0FFF75CFB411B03200229F5D91A
:10144000EDE052461068216920F0F85040EA016052
:10145000106020785746000729D56169D7F89000B9
:1014600089B140F00100C7F89000FFF741FB054645
:10147000D7F8900010F0020F19D1FFF739FB401B8D
:101480000228F5D962E020F00100C7F89000FFF7CC
:101490002FFB05465746D7F8900010F0020F06D0F4
:1014A000FFF726FB411B03200229F3D9B7E0207880
:1014B000400777D5786D10F0805F0BD1786D4FF0D5
:1014C000010940F080507865786D00F080500190FF
:1014D000019801E04FF00009984FF05910F4807F17
:1014E00011D1F05940F48070F051FFF701FB05462F
:1014F000F05910F4807F06D1FFF7FAFA411B032060
:101500000229F5D98BE0A768012F08D05146052F95
:10151000D1F88C001CD140F00400C1F88C00514679
:10152000D1F88C0040F00100C1F88C00FFF7E0FA20
:10153000054641F288375046D0F88C0010F0020F73
:1015400028D1FFF7D5FA401BB842F4D9032066E052
:1015500020F00100C1F88C00D1F88C0020F00400CC
:10156000C1F88C00FFF7C4FA0546002FE1D141F223
:1015700088375046D0F88C0010F0020F0AD0FFF7E1
:10158000B7FA411B0320B942F3D948E004100240E6
:1015900000100240B9F1000F57461EBF786D20F0D1
:1015A00080507865A06A002800F0BF80B8F10C0F69
:1015B00038D1012832D0B868E16A00F003028A42CB
:1015C0002CD1216B6FF00F0202EB011100F07002C1
:1015D0008A4223D1616B00F4FE42B2EB012F1DD190
:1015E000A16B00F40032073918BF01218A4215D1DE
:1015F000E16B554A02EA015100F4C002A1F5001165
:101600008A420BD1216C4FF07E4200F0C06002EAAA
:10161000016101F17E41884200F08780012002B023
:10162000BDE8F0873168022821F0807131600DD16A
:10163000FFF75EFA0546306810F0007F39D0FFF7FB
:1016400057FA411B03200229F5D9E8E7306810F06A
:10165000205F03D1B86820F00300B860B86838494B
:101660000840B860FFF744FA0446306810F0007F85
:101670005BD0FFF73DFA011B03200229F5D9CEE725
:1016800020F480303060306820F480203060FFF734
:101690002FFA0546002F7FF4EAAD306810F4003FC2
:1016A0003FF445AEFFF724FA411B03206429F4D927
:1016B000B5E704F12C07DAF808006FF00F058ECFBC
:1016C00005EB02121F4D28400843E16B10431E4AF0
:1016D00040EA032002EA01514FF07E42A1F50011D9
:1016E0000843216C02EA016101F17E410843174978
:1016F00001EA47310843CAF80800306840F08070BA
:101700003060DAF8080040F08070CAF80800FFF78F
:10171000EFF90446306810F0007F06D1FFF7E8F9D2
:10172000011B03200229F5D979E7002077E700BFE4
:10173000DA2800080C000020000000200060FEFFF6
:10174000FFFFEEFE8C809DF90000E0FF0000FEFF31
:10175000411E0020B0EB116F1CBF01207047044AEE
:10176000F023516003490B700721906011607047AE
:1017700010E000E023ED00E07047B0B504462068BB
:10178000626FA56F50F8081F212A18D111F080014F
:1017900015D0016821F080010160A06E38B1FEF71C
:1017A0007DFF20B1A06EFEF7C1FF20281CD020686D
:1017B000016821F0C00140F8081B20216167026820
:1017C0000021222D18D112F0400215D0016821F01D
:1017D00040010160E06E58B1FEF760FF40B1E06E7D
:1017E000FEF7A4FF202803D110200321E06703E0C7
:1017F000204600F03DFE0021C8B2B0BD7047000099
:1018000010B50446B5482168814200D010BDC069BA
:1018100010F0100F08BF10BD2046FFF7AEFF0B48B9
:101820000121102280F8061221680A624FF48072AA
:10183000E16E09684968C1F58071A0F8041200F2F0
:101840000311204600F054F910BD00BF8C010020A8
:10185000B0B504462068C2690146D0F800C051F80E
:10186000083F12F00F0F62D00CF4907503F0010ED8
:1018700055EA0E0561D0D30718BF1CF4807305D05C
:1018800001230362E36F43F00103E367930708D585
:10189000BEF1000F05D002230362E36F43F004039F
:1018A000E367530708D5BEF1000F05D00423036298
:1018B000E36F43F00203E36713070AD50CF020033C
:1018C00053EA0E0305D008230362E06F40F00800DE
:1018D000E067E06F002861D002EA0C00800606D5C0
:1018E000226E22B120469047206800F10801E06F87
:1018F000096800F0080001F04001084339D0204693
:1019000000F0B6FD2068816811F0400F2CD081688E
:1019100021F040018160E06E30B321498163FEF720
:10192000DEFED8B3E06E816BBDE8B040084702EA46
:101930000C01890601D5216E11E0D1020AD513F4FC
:10194000800107D04FF4801101622046BDE8B0400D
:10195000FFF712BF02EA0C010A0610D5616EE9B169
:101960002046BDE8B04008472046BDE8B040FFF73C
:1019700045BF2046FFF742FF0020E0670EE0490622
:101980000CD5016821F04001016000206066202034
:1019900060672046BDE8B04000F09AB9B0BD00BF16
:1019A000A123000810B504469CB1606F28B900203F
:1019B00084F87000204600F025F824206067206835
:1019C000016821F001010160204600F05FFD01285F
:1019D00001D1012010BD606A10B1204600F044FC26
:1019E0002068416821F490414160816821F02A011A
:1019F0008160016841F0010101602046BDE81040AE
:101A000000F09CBC2DE9F04786B0044601A81421E3
:101A1000FEF738FD2068BB4988425CD13048314E22
:101A20004FF002080027016841F48041016001A9DC
:101A3000006800F4804000900098D6F8E00B40F079
:101A40000100C6F8E00BD6F8E00B00F001000090B2
:101A50000098CDF808804FF4C060019003200397F0
:101A60000490072005904FF09040FEF761FF1E4D57
:101A700006F114004FF080092021B246C5E90008A4
:101A80002846C5E90277C5E90497C5E906712F62C2
:101A9000FEF7A4FE08B1FEF700FE144E1020E56626
:101AA000AC6206F10801C6E900A881E8810230466F
:101AB000C6E90577C6E90777FEF790FE08B1FEF79D
:101AC000ECFD252007210022A666B462FFF772F81C
:101AD0002520FFF761F806B0BDE8F0870038014027
:101AE000601002406C04024070000020C000002022
:101AF000B0B5044613460A46A06F202805D142B36C
:101B00003BB394F87000012801D1022522E00025A2
:101B10000120E567626584F870002220A4F858303F
:101B2000A067E06EC0B1DFF850C01449DFF89CE157
:101B300000F12C0787E80250856321682431FEF705
:101B4000B0FE48B11020E067002084F8700020202B
:101B500060670125E8B2B0BD84F870502068016864
:101B600041F480710160816841F001018160816808
:101B700041F040018160EDE73B24000803240008A8
:101B8000704770472DE9FC4704469A4616460F46B3
:101B9000606F202806D101252FB126B194F870007E
:101BA000012804D10225E8B202B0BDE8F0874FF069
:101BB00000090120C4F87C9084F87000212060673F
:101BC000FEF796FFA4F85060A4F852608046A06823
:101BD000B0F5805F05D12669002E0CBFB9463E46A0
:101BE0001BE03E4619E02046802100224346CDF806
:101BF00000A000F081FDF0B91EB116F8011B2068AD
:101C000005E039F8021B206800266FF35F2101858B
:101C1000B4F852000138A4F85200B4F85200002879
:101C2000E1D12046402100224346CDF800A0002506
:101C300000F062FD08B10325B5E7202084F870505C
:101C40006067B0E7B0B504461346606F202805D141
:101C500051B34BB394F87000012801D1022524E060
:101C600000250120A4F85230E567E16484F8700093
:101C70002120A4F850306067A06EC0B1DFF844C0E6
:101C8000114ADFF848E000F12C0787E8045085632B
:101C900022682832FEF705FE48B11020E0670020D8
:101CA00084F87000202060670125E8B2B0BD20688C
:101CB0004021016284F87050816841F080018160A8
:101CC000F3E700BF6B24000841240008B12300089B
:101CD00010B500680B49884210D1094C94F80201F4
:101CE000002818BF10BDB4F8001107A0FEF738FB9C
:101CF0000020A4F80001012084F8020110BD00BFFB
:101D00008C010020003801400D0A0D0AB7A2CBCD8E
:101D1000CDEAB3C9A3ACD2D1B7A2CBCDD7D6B7FB4E
:101D2000B8F6CAFDCEAAA3BA25640D0A00000000C9
:101D30007047FEE7E0B50E480022016841F002015D
:101D400001600621006800F0020001900198442023
:101D5000FEF730FF4420FEF71FFF45200721012238
:101D6000FEF728FF4520BDE88C40FEF715BF00BFF9
:101D70004810024070B586B000201A4C01224FF482
:101D80006075012605901648016841F080010160E8
:101D9000016801F0800100910099016841F0100193
:101DA0000160016801F0100100910099016841F0A3
:101DB000010101604FF46071006800F001000090C3
:101DC00000982046FEF78BFE0220CDE901560396CF
:101DD00001A904902046FEF7ABFD06B070BD00BF20
:101DE0004C1002400010004810B50E4C0E49002265
:101DF0004FF4E1300C23C4E90822C4E90010204666
:101E0000C4E90222C4E90423C4E90622FFF7CAFD9B
:101E100008B1FEF742FC2068016841F01001016042
:101E200010BD00BF0C01002000380140FEE77047E4
:101E300070470000F8B5894F04460D46F86810F069
:101E4000030F10D0F868216800F0030201208A42D5
:101E50007ED100297CD0F8686168C0F3021001309F
:101E6000884219D125E0206803280DD0022806D029
:101E7000012811D1396811F0020F0DD00EE0396838
:101E800011F4806F08D009E0396811F4003F05D1E2
:101E9000396811F4802F01D1012059E0F968626896
:101EA0006FF00F0321F0730103EB0212084310439C
:101EB000F860386820F080603860FEF719FE06464A
:101EC000386810F0006F05D0FEF712FE801B022864
:101ED000F6D936E0CDB16248012D4FF0FF3208BF90
:101EE00000F1B4603969012D00EA010004F1140128
:101EF00008BF04F11001012D096802EB51014FF0F8
:101F0000190208BF1522914006E038695549564A22
:101F10000840E16802EA41310843A16840EA012033
:101F20003861386840F080603860FEF7E1FD0546B2
:101F3000386810F0006F06D1FEF7DAFD401B02286A
:101F4000F6D9032004E0A06939690843386100200C
:101F5000C0B201B0F0BD00BFF8B5C14F04460D4698
:101F6000F86810F0030F10D0F868216800F0030241
:101F700001208A426ED100296CD0F8686168C0F3F4
:101F800002100130884219D125E0206803280DD0C5
:101F9000022806D0012811D1396811F0020F0DD0A6
:101FA0000EE0396811F4806F08D009E0396811F447
:101FB000003F05D1396811F4802F01D1012049E09B
:101FC000F96862686FF00F0321F0730103EB0212EE
:101FD00008431043F860386820F080503860FEF7FE
:101FE00087FD0646386810F0005F05D0FEF780FDDB
:101FF000801B0228F6D926E078694DB118494FF0C8
:102000007E420840216902EA016101F17E4105E05A
:102010001449154A0840E16802EA41310843A168C1
:1020200040EA01207861386840F080503860FEF75F
:102030005FFD0546386810F0005F06D1FEF758FDD9
:10204000401B0228F6D9032004E06069796908433F
:1020500078610020C0B201B0F0BD00BF00100240A6
:10206000FF80FFF9FF80FDFF0000FEFFBCB51F4DA4
:102070000446286810F0805F0FD1286840F0805037
:102080002860286800F0805001900198FEF700FE5B
:10209000296821F08051296001E0FEF7F9FDB0F5D3
:1020A000007F06D1812C08D30120A02C88BF0220FC
:1020B0000EE0802C03D903200AE0002008E0A4F100
:1020C0007000802CB0FA80F04FEA501008BF022058
:1020D00007490A6822F0070202430A60096801F012
:1020E0000701081A18BF012002B0B0BD5810024005
:1020F00000200240B0B500F00700294C07280AD0A4
:10210000DFE800F00413181D2C363B00254D204657
:102110008021002203E0234D204680210122A84790
:1021200020464FF48071012212E01E4D204680218E
:10213000012208E01B4D20468021012212E0194DAA
:10214000204680210022A84720464FF480710022BB
:10215000A84720464FF4007101221CE0114D204693
:1021600080210022A84720464FF4807101220DE013
:102170000C4D20468021012203E00A4D204680219B
:102180000022A84720464FF480710022A84720462D
:102190004FF4007100222B46BDE8B040184700BF45
:1021A00000100048DF0A00087047FEF7A5BCF0B534
:1021B000B9B028AD202105F10800FEF763F901ACA4
:1021C0008421201DFEF75EF94FF48030012603279D
:1021D00014212990022028963290CDE9337635914A
:1021E0000721CDE9361038902846FFF70FF80F2069
:1021F00000250421CDE9230723A8CDE925552795FE
:10220000FEF7FCFE204601960F95FEF747FD4FF4C2
:102210000070FEF70BFD39B0F0BD000010B50F489F
:10222000104CD0F8801041F47001C0F880100C49B7
:102230000A6842F001020A6000228A600B682340AB
:102240000B604FF48053CB600B6823F480230B604A
:102250008A614FF00061016010BD00BF08ED00E031
:1022600000100240FFFFF6EA416A11F0010F08D0AA
:1022700002685368D0F828C023F4003343EA0C0303
:1022800053608A0708D502685368D0F82CC023F43D
:10229000803343EA0C0353604A0708D50268536849
:1022A000D0F830C023F4802343EA0C0353600A07BC
:1022B00008D502685368D0F834C023F4004343EAD9
:1022C0000C035360CA0608D502689368D0F838C07A
:1022D00023F4805343EA0C0393608A0608D502680E
:1022E0009368D0F83CC023F4005343EA0C03936096
:1022F00080B54A0615D5D0F800E0DEF804C0036CBE
:102300002CF48012B3F5801F42EA0302CEF80420B9
:1023100007D1DEF80420436C22F4C0021A43CEF841
:1023200004200906BDE8804058BF704701684A682C
:10233000806C22F40022104348607047BCB504460C
:102340000020E067FEF7D4FB05462068016811F025
:10235000080F0AD011484FF4001100222B460090BC
:10236000204600F0C9F970B92068006810F0040F29
:102370000BD00A484FF4800100222B4600902046E3
:1023800000F0BAF908B1032005E0202100206167C0
:1023900084F87000A167C0B202B0B0BDFFFFFF01BA
:1023A000806A0021A0F85A10A0F85210FFF726BA50
:1023B00010B5846A636FA06F21688A68212B0BD1E6
:1023C00012F0800208D00022A4F852200A6822F0FD
:1023D000C0020A60202262678968222808D111F0B1
:1023E000400005D00020A4F85A00204600F040F834
:1023F000E06F40F01000E0672046BDE81040FFF7B6
:10240000FDB90168806A096811F0200F18BFFFF755
:10241000B7BB0021A0F85A1001680A6822F4807244
:102420000A608A6822F001028A608A6822F040020B
:102430008A6020218167FFF7A3BB806AFFF7A1BBF9
:102440000168806A096811F0200F18BFFFF740BCCF
:102450000021A0F852100068816821F0800181609D
:10246000016841F0400101607047806AFFF760BC7D
:1024700001680A6822F490720A608A6822F00102F8
:102480008A600021016620218167704770B504468B
:102490008C4D8D4E2168A068D4E904231043B142CD
:1024A00040EA0302E0690B6842EA000203EA05031E
:1024B00042EA03020A604A68E36822F4405242EAB0
:1024C00003024A60A3691CBF256A2B438D6825F46B
:1024D00030652B438B607D4B99421CD07C4B9942DD
:1024E00028D07C4B99422BD07B4B99422ED0B142C5
:1024F00032D07A4B994240F07180794A794912681A
:1025000001F5806182F0020202F0030242EA8202D7
:1025100021FA02F532E0724B022542F241021B68B9
:1025200085EA930303F00305AB0022FA03F345EABF
:1025300085021FE06A4A0223126883EA121210E041
:10254000674A0223126883EA92120AE0644A02236D
:10255000126883EA122204E0614A0223126883EAC5
:10256000922202F0030242F24105930042EA820203
:1025700025FA03F35B4DD540B14220D005F01F0191
:10258000B0F5004F0DD10120082900F29780DFE857
:1025900001F005434695499595954F00FEF7C4FD1A
:1025A00042E00120082900F28980DFE801F00551AE
:1025B0005487578787875C00FEF7B6FD50E003F02D
:1025C0000F050120042D00F279804749DFE805F06E
:1025D000031009760E00FEF7A7FD04E0082310257E
:1025E000CAE7FEF7BFFD014611B948E04FF40041CC
:1025F0006268012002EB420399425FD313039942C0
:102600005CD80120042D59D8DFE805F0033B3E5883
:102610004C00FEF789FD39E0FEF792FD04E06168A9
:10262000324A08E0FEF79EFD616840004A0803E078
:1026300061684FF4803248081044B0FBF1F04FF667
:10264000F0710140102938D3C0F34200084314E070
:10265000FEF776FD04E06168234A07E0FEF782FD9D
:1026600061684A0803E061684FF40042480810447A
:10267000B0FBF1F080B210281FD32168C8600020A1
:102680001CE01B48002104E0FEF76CFD6268010EAF
:10269000000210EB52004FF0000341F10001FDF782
:1026A000E7FD05E04FF4000000EB5200B0FBF2F054
:1026B000104AA0F540719142DFD901200021C4E900
:1026C000181170BDF369FFEF008000400044004026
:1026D00000480040004C00400050004000380140DD
:1026E00088100240020102000024F4000048E801C2
:1026F000000024F4FFFC0F002DE9F843DDF82090E2
:10270000984616460F46044609F101052068C0693F
:102710003840C01BB0FA80F04009B0421BD1002DF8
:10272000F4D0FEF7E5F9B9F1000F03D0A0EB0800F3
:102730004845EBD92068016821F4D07101608168B7
:1027400021F00101816020200021606784F8701071
:10275000A067032000E00020C0B201B0BDE8F08314
:1027600010B53E4C2046FFF773F82046BDE81040F8
:10277000FFF746B8FEE70020704700001CB5374C55
:10278000019001A901224FF6FF732046FFF7FAF9E5
:102790002068C16911F0800FFBD0019802B010BD14
:1027A0002DE9F84FFEF7AEF9FFF701FDFFF7E2FA6A
:1027B000FFF7C0FAFFF718FB274D284C4FF4807243
:1027C00005F2031120460091FFF792F924A120465B
:1027D0000422FFF737FA4FF0000B4FF007094FF4D0
:1027E0007A7433A764264FF0000895F80602012892
:1027F00002D1B5F80412C1B91FFA88FABAFBF4F095
:1028000000FB14A010B93846FDF726FEBAFBF6F01F
:10281000C007484608BF0720C0B2FFF76BFC0A207C
:10282000FEF776F808F10108DFE715A0FDF798FD3F
:1028300085F802B109480099B5F80422A5F80021ED
:10284000FFF700FA85F806B2B5F80402A5F804B25D
:1028500000F1FF09C9E700BF8C0100200C01002036
:102860000D0AC7EBCAE4C8EBCAFDBEDDA3ACD2D4E7
:10287000BBD8B3B5BCFCBDE1CAF8A3BA0D0A0000D1
:102880000D0A0D0ABDD3CAD5B5BDB5C4D7D6B7FBA1
:10289000B8F6CAFDCEAAA3BA25640D0ABDD3CAD51F
:1028A000B5BDB5C4CAFDBEDDCEAAA3BA0D0A0000EF
:1028B0000D0A0D0AC7EBCAE4C8EBCAFDBEDDA3AC26
:1028C000D2D4BBD8B3B5BCFCBDE1CAF8A3BA0D00E5
:1028D0004FF04070E1EE100A704700000000000069
:1028E00000000102030406070809000000000102BD
:1028F00003040000A0860100400D0300801A0600BA
:1029000000350C0040420F0080841E0000093D008D
:1029100000127A000024F40000366E010048E8013D
:10292000006CDC02502900080000002010000000AC
:10293000C401000860290008100000208809000078
:10294000E00100080000000000000000000000009E
:1029500010000000010000000000000000093D0020
:040000050800018965
:00000001FF
