:020000040800F2
:10000000D01900209D010008872000082F1F00083C
:1000100085200008C9020008612B000800000000CC
:10002000000000000000000000000000C5250008DE
:100030001D0300080000000089200008C7250008F3
:10004000B7010008B7010008B7010008B7010008B0
:10005000B7010008B7010008B7010008B7010008A0
:10006000B7010008B7010008B7010008B701000890
:10007000B7010008B7010008B7010008CD02000869
:10008000B7010008B7010008B7010008B701000870
:10009000B7010008B7010008B7010008B701000860
:1000A000B7010008B7010008B7010008B701000850
:1000B000B7010008B7010008B7010008B701000840
:1000C000B7010008B7010008B7010008B701000830
:1000D000B70100084D2B0008B7010008B701000860
:1000E000B7010008B7010008B7010008B701000810
:1000F000B7010008B7010008B7010008B701000800
:10010000B7010008B7010008B7010008B7010008EF
:10011000B7010008B7010008B7010008B7010008DF
:10012000B7010008B7010008B7010008B7010008CF
:10013000B7010008B7010008B7010008B7010008BF
:10014000B7010008B7010008B7010008B7010008AF
:10015000D9020008E5020008B7010008FD220008E6
:10016000B7010008B7010008B7010008B70100088F
:10017000B7010008B70100080000000000000000FF
:10018000B7010008B7010008DFF80CD000F08AF8CA
:1001900000480047952D0008D019002006488047E8
:1001A00006480047FEE7FEE7FEE7FEE7FEE7FEE75C
:1001B000FEE7FEE7FEE7FEE73926000889010008B2
:1001C0002DE9F05F0546002092469B46884606468C
:1001D000814640241BE0284641464746224600F01F
:1001E00051F853465A46C01A914110D31146184649
:1001F000224600F038F82D1A67EB01084F462246D8
:100200000120002100F02FF817EB00094E41201EBD
:10021000A4F10104DFDC484631462A46434600F09B
:1002200000B830BCBDE8C09FD2B201E000F8012B9D
:10023000491EFBD270470022F6E710B513460A4666
:1002400004461946FFF7F0FF204610BD30B50446BE
:100250000020034600E05B1C934203D2E05CCD5CCF
:10026000401BF8D030BD202A04DB203A00FA02F10E
:10027000002070479140C2F1200320FA03F3194394
:1002800090407047202A04DB203A21FA02F0002136
:10029000704721FA02F3D040C2F120029140084396
:1002A00019467047064C074D06E0E06840F0010330
:1002B00094E8070098471034AC42F6D3FFF768FF84
:1002C00080340008A0340008FEE70000014800F078
:1002D00071B800BFBC100020014800F06BB800BF2F
:1002E00070000020014800F065B800BF2000002029
:1002F00010B5D0E910CE01240EF01C0E04FA0EF455
:10030000CCF804400468636080681028084608BF81
:100310001046A06008BF0A46E26010BD70477047F3
:1003200090F82510022914D1016801230A6822F0EF
:100330000E020A600A6822F001020A60D0E9101277
:1003400002F01C0203FA02F24A60002180F8253014
:1003500002E00421C1630121002280F82420084624
:10036000704790F8251002291DD1016801230A6801
:1003700022F00E020A600A6822F001020A60D0E947
:10038000101202F01C0203FA02F24A60002180F807
:10039000241080F82530826B42B180B5904700214F
:1003A000BDE8804002E00421C16301210846704796
:1003B000C06B7047B0B5D0E910C4DCF8001002681B
:1003C00004F01C0E136813F0040F1EBF042404FA7B
:1003D0000EF414EA010519D19C0723D5022404FA6E
:1003E0000EF414EA01051DD0116811F0200F06D19A
:1003F000116821F00A011160012180F82510002107
:10040000CCF8044080F82410C16A23E0116811F090
:10041000200F02BF116821F004011160CCF80440E4
:10042000016B17E01B0719D5082303FA0EF31940D7
:1004300008BFB0BD116821F00E011160012101FA61
:100440000EF2CCF804200022C16380F8242080F84A
:100450002510416B11B1BDE8B0400847B0BD0000A8
:10046000002854D02DE9F04F02212A4D142400F128
:10047000080780F825102849026805F1080CAB46EA
:10048000624538BFA5F5806538BF01F5806111442C
:10049000B1FBF4F147F6F0744FEA810EC0E9105E4B
:1004A000156825EA0408D0CFD0E9053AD0E9075904
:1004B00048EA0401B4F5804F41EA060141EA070128
:1004C00041EA030141EA0A0141EA050141EA090161
:1004D000116012D00BF1A80162450EF01C034FF021
:1004E0000F0738BFABF556719F400A68BA430A60E0
:1004F00042680F689A403A430A6000210122C163B2
:1005000080F8241080F8252000F008B800E00121D0
:100510000846704700040240F8FBFDBF30BCBDE850
:10052000C04FFFF7F3BF10B5044694F8240001282C
:1005300020D0012084F8240094F82500012816D149
:10054000022084F825000020E063D4F800C0DCF825
:10055000000020F00100CCF800002046FFF7C8FEA4
:100560002068226B01683AB141F00E010AE00020D8
:1005700084F8240002200BE021F0040101600168EE
:1005800041F00A010160016841F0010101600020B1
:10059000C0B210BD2DE9FF4F624A07274FF0000A95
:1005A0004FF0000E0026904200F138424FEAB2238D
:1005B00008BF0627062B38BF4FEAB22700F12C02EE
:1005C0000092021D019702920B6833FA06F708BFEA
:1005D00000F0B4B8012202FA06F713EA070B00F0A4
:1005E0009480D1F804C04CF01004122C11D10EF0FC
:1005F0001C050F2202FA05F44E4A02EA5602024492
:10060000136AA3430C6904FA05F52B431362D1F86E
:1006100004C0032304680CF00309BCF1120F03FAB1
:100620000AF309FA0AF224EA03046FEA030842EA29
:10063000040202606FD8012202FA0CF212F0061FC7
:1006400069D08268CB68042502EA080203FA0AF33B
:100650001A438260029C2CFA05F2236802F0010220
:10066000B240BB431A432260C2688B6802EA0802A8
:1006700003FA0AF31A43C2605FEACC0245D52C4A5A
:100680000EF00C070F25BD4013461A6842F0010218
:100690001A601A68244B02F001021C46039226F0ED
:1006A0000302039B2244244B9C4652F80C30AB437C
:1006B000019D05FA07F73B4342F80C3022684F686A
:1006C00042EA0B0317F4803F08BF22EA0B0317F43A
:1006D000003F2360626842EA0B0308BF22EA0B0373
:1006E00017F4801F6360A26842EA0B0308BF22EA86
:1006F0000B030E4A17F4001FA36015462A6842EA4E
:100700000B0308BF22EA0B032B600AF1020A0EF169
:10071000040E013658E7B9F1030FA5D1009C03255B
:1007200099E700BF00180048000401400C04014094
:1007300060100240FCFFFF7F08FCFFFF1FBCBDE80C
:10074000E08F00F11803002A08BF00F128031960A8
:10075000704700001B488068704700BF1948416817
:10076000826811448160704780B5032000F080F8F2
:10077000002000F007F808B1012080BD00F024F847
:10078000002080BD70B50F4E04467068B0B14FF4C4
:100790007A71B1FBF0F055490968B1FBF0F001F056
:1007A00049F901250F2C0AD848B94FF0FF302146EE
:1007B0000022002500F030F8346000E001252846D2
:1007C00070BD00BF0000002082B00B48816841F07E
:1007D00001018160816801F00101019101990168C5
:1007E00041F080510160006800F080500090009856
:1007F000042002B000F03CB858100240002808DB8A
:1008000000F01F010122400902FA01F1014A42F8F9
:100810002010704700E100E0B0B500F00F031A4D62
:10082000124CB0F1FF3FA3F104032B4403F10C037E
:10083000C8BF03192868C0F30220051DC41E80F03C
:100840000700072D4FF0010538BF0024042828BFFA
:10085000042005FA00F00138084005FA04F10F31D0
:10086000A0401140084300011870B0BD00E400E052
:1008700005494FF6FF030A681A4060F30A2203484D
:1008800010430860704700BF0CED00E00000FA055F
:100890001B49B0F5007F0A6802F4C0621BD1B2F5B3
:1008A000007F20D00868012262F34A2032220860CB
:1008B0000E48006850430E4AB0FBF2F0C0434A694C
:1008C00018B1013012F48062F9D1486910F4806FD8
:1008D00009D0032008E0B2F5806F04D00868022236
:1008E00062F34A2008600020C0B270470C0000206C
:1008F00040420F000248006800F4C060704700BF2B
:10090000007000407CB50446FFF724FF94F83910CE
:100910000546002011F0020F35D084F83800206819
:10092000016811F0040F0BD0016821F0040101608F
:10093000606BFFF7F5FC18B1E06B40F00400E0637A
:10094000206801222B460226016841F00201016065
:100950000221206C0090204601F0A6FC98B9206886
:10096000202100222B46C660206C0090204601F01A
:100970009BFC40B92068416921F040614161012040
:1009800084F83900002002B070BD704710B50446ED
:1009900094F8390010F0020F29D0002084F83800B4
:1009A000082084F839002068016821F4F8110160FA
:1009B000016811F0040F0AD10221C160016841F4FD
:1009C00000310160016841F0020101600FE001683F
:1009D00021F004010160AF49606B8163FFF7C1FC46
:1009E00028B1012084F839002046FFF7CEFF00200F
:1009F00010BD00BF7047F8B515460F460446FFF717
:100A0000A9FE064694F83800012801D102202BE007
:100A1000012084F83800022094F83910012920D1EF
:100A2000002100223346E16384F83900204620216A
:100A3000009501F039FCA0B920463946002201F0AA
:100A400024FB786A20B1012084F83900002008E0F6
:100A500020460221012233460095022501F024FCA4
:100A600020B1002184F8381001B0F0BD2068C560C5
:100A7000E9E770477047000010B5044620688268B7
:100A8000016812F0040F18BF11F4802327D19307D7
:100A90003ED511F400333BD00221C160016821F43E
:100AA000E021016094F83910122948D1016811F051
:100AB000040F09D0016821F004010160606B006837
:100AC000016821F0010101602046FFF75FFF01206E
:100AD00084F839002046BDE8104000F04FBA94F881
:100AE0003910122948D101460DE0626A002A6DD002
:100AF000E169097880F82010E2692168636A0132AF
:100B0000E2615A1E62628A6812F0040FEDD161E060
:100B1000130749D511F4002346D00821C1600168AC
:100B200011F4800F06D0016821F41021016001202A
:100B300084F839002046BDE8104000F0BEB994F8B2
:100B4000391022294BD1016811F0040F64D10146FC
:100B50000DE0216B002969D090F82010A26A117075
:100B6000A26A2168236B0132A2625A1E226389683D
:100B700011F4F85FEDD159E094F83910222929D108
:100B800001460CE0226B0AB390F82010A26A1170A3
:100B9000A26A2168236B0132A2625A1E22638A680C
:100BA00012F0040FEED115E0D30718BF11F4803313
:100BB00021D1D20658BF10BD11F4801169D0102187
:100BC000C1602046BDE8104000F078B9086820F404
:100BD000802008602046BDE81040FFF74BBF94F826
:100BE000391002292DD1012084F839002046BDE8B2
:100BF0001040FFF7FFBE0121C160026822F470229D
:100C00000260E26B42F00202E263026812F0040F3B
:100C100029D184F8391037E0016821F0040101601E
:100C2000606B0068016821F0010101602046FFF758
:100C3000ADFE012084F839002046BDE8104000F0E8
:100C40003BB994F83910082923D1416921F040615A
:100C50004161012084F83900E06BA8B92046BDE865
:100C60001040FFF792BE016821F0040101600949BC
:100C7000606B8163FFF775FB58B1E06B40F00400D7
:100C8000E063012084F839002046BDE81040FFF7FA
:100C9000F0BE10BD31220008F8B50446FFF75AFD3A
:100CA00005462CB194F83800012803D1022045E014
:100CB000012043E0012084F8380094F8390008B19D
:100CC000206C08E0002084F83800204600F03CF852
:100CD00041F28830206421686FF0FF0600270A681F
:100CE000A36806EB032322F470621A432B460A60C2
:100CF000009020462021002201F0D6FAE0B9D4E984
:100D000000120F4D04F110060B682B40E5682B43D1
:100D100043EA02620B4B0A604A681A4068CE2A43D3
:100D200042EA034232434A600A6842F001020A6022
:100D30000121E76384F8391084F8387001B0F0BD00
:100D4000EFFFFF00FEF8E0FF70B586B0044601A893
:100D50001421FFF770FA2348216800F1B042914254
:100D60003DD1214900264A6842F480724A604A68AF
:100D700002F480720092009A0A6842F010020A603F
:100D8000096801F0100100910099022102914FF4CD
:100D90007C4101910321039604910A21059101A947
:100DA000FFF7F8FB114D1249052080222E62C5E99C
:100DB00000102846C5E90266C5E90426C5E90666AD
:100DC000FFF74EFB08B1FFF7AAFA472005210022E2
:100DD0006563AC62FFF720FD4720FFF70FFD06B00B
:100DE00070BD00BF001000484C100240BC10002035
:100DF000580002402DE9FC41154688460446FFF79D
:100E0000A9FC27680646B86994F83810012901D171
:100E100002204EE0012184F8381094F8391001299D
:100E20003DD10021B8F1000FE1633AD02221012227
:100E300084F839103969013121633969C4F828808F
:100E40000131E162796962F39B617961B86111E016
:100E50002046062101223346009501F025FAD0B93B
:100E600097F82000A16A0870A06A216B0130A06287
:100E7000481E2063206B0028EAD12046022101226F
:100E800033460095022501F00FFA20B92068C560AD
:100E90002046FFF737FD012184F8391006E00220D3
:100EA00004E0E06B40F00800E0630120002184F8DA
:100EB000381002B0BDE8F0817047704770472DE9E7
:100EC000FC41154688460446FFF744FC0646276861
:100ED00094F83800012801D102204CE0012084F868
:100EE000380094F8390001283BD10020B8F1000FF8
:100EF000E06338D0122084F839003869013060622C
:100F00003869C4F81C8001302062786920F04060A4
:100F1000786111E02046042101223346009501F05A
:100F2000C3F9D0B9E069007887F82000E069616A08
:100F30000130E061481E6062606A0028EAD1204604
:100F40000221012233460095022501F0ADF920B9B6
:100F50002068C5602046FFF7D5FC012184F83910D0
:100F600006E0022004E0E06B40F00800E0630120AE
:100F7000002184F8381002B0BDE8F081704700000D
:100F80002DE9FC470446D44F6078000721D5606EF8
:100F90004FEAB051032908D8DFE801F00209121620
:100FA000201D002101F0B0F906E0012612E004F155
:100FB0002000002101F03AFA06465EB9606E03E0B7
:100FC000396841F480313960F96F21F440010843F8
:100FD000F86700266078C00601D4B2462BE0A06E08
:100FE0004FEA3060032809D8B246DFE800F0020C6F
:100FF0001318201D002101F087F909E04FF0010AC4
:101000004FF0010818E004F12000002101F00EFA71
:10101000824604E03868B24640F480303860BAF165
:10102000000FD04608D1F86FA16E4FF0000A20F0F3
:1010300040700843F867B046A078800701D4C246E4
:1010400068E0F86C10F0805F0BD1F86C4FF001098C
:1010500040F08050F864F86C00F0805001900198E6
:1010600001E04FF000099D4D286840F48070286031
:10107000FFF770FB0646286810F4807F07D1FFF762
:1010800069FB801B0228F6D94FF0030A3BE0BAF156
:10109000000F38D1D7F8840010F4407029D0D4F86C
:1010A0008410884211D0D7F88400D7F8841041F416
:1010B000803120F44070C7F88410D7F8841021F4F0
:1010C0008031C7F88410C7F88400C00711D0FFF73B
:1010D00041FB064641F288354FF0030AD7F88400F9
:1010E00010F0020F05D1FFF735FB801BA842F5D9A0
:1010F00009E0D7F88400D4F88410C24620F4407088
:101100000843C7F88400B9F1000F1EBFF86C20F047
:101110008050F864206810F0010F05D0F96FA26BC1
:1011200021F003011143F967810705D5F96FE26BDF
:1011300021F00C011143F967410705D5F96F226CC5
:1011400021F030011143F967010705D5F96F626C91
:1011500021F0C0011143F967C10605D5F96FA26CF2
:1011600021F440711143F967810605D5F96FE26CEE
:1011700021F440611143F967810505D5F96FE26DEE
:1011800021F440211143F967410505D5F96F226E1D
:1011900021F440111143F967410605D5F96F226D1D
:1011A00021F440511143F967010605D5F96F626DCD
:1011B00021F440411143F967C10505D5F96FA26DCE
:1011C00021F440311143F967810419D5FA6FE16EBA
:1011D00022F04062B1F1806F42EA0102FA6707D063
:1011E000B1F1006F0CD1396841F48011396007E02A
:1011F000201D012101F088F8002818BF82462068D0
:10120000010319D5FA6F216F22F04062B1F1806FAE
:1012100042EA0102FA6707D0B1F1006F0CD13968D8
:1012200041F48011396007E0201D012101F06CF8C4
:10123000002818BF82462068410319D5FA6F616FF4
:1012400022F04062B1F1806F42EA0102FA6707D0F2
:10125000B1F1006F0CD1396841F48011396007E0B9
:10126000201D012101F050F8002818BF8246206897
:10127000400419D5F96FA06F21F04051B0F1005F23
:1012800041EA0001F96707D0B0F1805F0CD1201D61
:10129000022101F039F804E004F12000022101F0FC
:1012A000C5F8002818BF8246206810F4004F05D00A
:1012B000F96FE26F21F080411143F967C00306D551
:1012C000F86FD4F8801020F000400843F8675046CB
:1012D00002B0BDE8F08700BF0C1002400070004073
:1012E0002DE9F04104468846002C00F086807C4EB3
:1012F0004FF48050315801F0070141450AD231586E
:1013000021F0070141EA08013150305800F0070090
:10131000404572D1206810F0010F31D0606802287A
:1013200006D0032809D1316811F0007F0CD164E0A8
:10133000316811F4003F07D15FE0316810B1490511
:1013400002D45AE0890758D5B168354621F0030127
:101350000843B060FFF7FEF9064641F28837284699
:101360008068616800F00C00B0EB810F06D0FFF7D9
:10137000F1F9801BB842F2D903203FE020682E46E5
:10138000810705D5B168A26821F0F0011143B16071
:101390004FF48051725802F0070242450AD9725840
:1013A00022F0070242EA08027250715801F0070168
:1013B000414522D1410705D5B168E26821F4E061D9
:1013C0001143B160000706D5B068216920F4605070
:1013D00040EAC100B06000F037F8B168094AC1F3D3
:1013E0000311515C01F01F01C84014490860064810
:1013F0000068BDE8F041FFF7C5B90120C0B2BDE803
:10140000F08100BFC8330008000000200B480C49E1
:101410000C4A00680968C1F30221515C01F01F0108
:10142000C840704705480649064A00680968C1F384
:10143000C221515C01F01F01C84070470C00002020
:1014400008100240D833000825498A68C86812F09D
:101450000C0205D00C2A21D100F0030001281DD177
:101460000868224B10F0080F19BF08680009D1F86E
:101470009400000A002A00F00F0053F8200008BF73
:1014800070470C2A1CBF00207047CA6802F0030294
:10149000022A0DD0032A08BF13480AE002F00F0009
:1014A000042804BF0F487047082816D10E4870471B
:1014B0000C48D1F80CC0CB68C9680222C1F3416165
:1014C00002EB4101C3F306225043CCF30212013276
:1014D000B0FBF2F0B0FBF1F070470020D1E700BFA5
:1014E000001002400024F40000127A00E0330008EB
:1014F0002DE9FC470446002C00F00282DC49DD4E59
:1015000048688A4600F00C08886800F003092078D3
:10151000C00629D42078C0077BD0B8F1080F70D05E
:10152000B8F10C0F08BFB9F1030F6AD06768B7F5BF
:10153000803F07D03068B7F5A02F40F0138240F409
:1015400080203060306840F480303060FFF702F96E
:101550000546306810F4003F5BD1FFF7FBF8411BF4
:1015600003206429F5D9CCE1B8F1000F1CD0B8F103
:101570000C0F08BFB9F1010F16D0A169306800291E
:1015800000F09B8040F001003060FFF7E3F8054673
:10159000306810F0020F40F0A280FFF7DBF8411B2B
:1015A00003200229F4D9ACE13068554610F0020F4F
:1015B00003D0A069002800F0A381206A316811F0EF
:1015C000080F06BFD5F890100909316801F0F00145
:1015D000884249D900F0B2FF002840F0918130687C
:1015E00040F0080030603068216A20F0F0000843C5
:1015F00030602868E16920F47F4040EA01202860DB
:1016000047E0306810F4003F03D06068002800F025
:1016100077812078800740F18E80B8F1040F1AD0CE
:10162000B8F10C0F08BFB9F1020F14D0E1683068AF
:10163000002967D040F480703060FFF78BF80546D2
:10164000306810F4806F6ED1FFF784F8411B0320DF
:101650000229F5D955E13068524610F4806F63D005
:10166000E068002860D14BE1316841F00801316049
:10167000316821F0F001014331602968E26921F409
:101680007F4141EA0221296000F058FF002840F024
:101690003781FFF7D9FE6968DE4AC1F30311515C57
:1016A00001F01F01C840DC490860DC480068FFF712
:1016B00069F8002840F025812CE720F00100306017
:1016C000FFF748F80546306810F0020F3FF422AFEC
:1016D000FFF740F8411B03200229F4D911E13068DB
:1016E000524640F0080030603068216A20F0F00077
:1016F000084330601068E16920F47F4040EA01202F
:10170000106007E720F480703060FFF723F805468B
:10171000306810F4806F0ED0FFF71CF8411B0320D7
:101720000229F5D9EDE052461068216920F0F85001
:1017300040EA0160106020785746000729D56169AA
:10174000D7F8900089B140F00100C7F89000FFF78A
:1017500001F80546D7F8900010F0020F19D1FEF7F6
:10176000F9FF401B0228F5D962E020F00100C7F81C
:101770009000FEF7EFFF05465746D7F8900010F0AF
:10178000020F06D0FEF7E6FF411B03200229F3D922
:10179000B7E02078400777D5786D10F0805F0BD1E7
:1017A000786D4FF0010940F080507865786D00F059
:1017B00080500190019801E04FF00009984FF059D6
:1017C00010F4807F11D1F05940F48070F051FEF791
:1017D000C1FF0546F05910F4807F06D1FEF7BAFF2D
:1017E000411B03200229F5D98BE0A768012F08D0FF
:1017F0005146052FD1F88C001CD140F00400C1F8EF
:101800008C005146D1F88C0040F00100C1F88C00EA
:10181000FEF7A0FF054641F288375046D0F88C000D
:1018200010F0020F28D1FEF795FF401BB842F4D903
:10183000032066E020F00100C1F88C00D1F88C0094
:1018400020F00400C1F88C00FEF784FF0546002F4D
:10185000E1D141F288375046D0F88C0010F0020FE9
:101860000AD0FEF777FF411B0320B942F3D948E0C5
:101870000410024000100240B9F1000F57461EBF8D
:10188000786D20F080507865A06A002800F0BF8055
:10189000B8F10C0F38D1012832D0B868E16A00F0F5
:1018A00003028A422CD1216B6FF00F0202EB01116F
:1018B00000F070028A4223D1616B00F4FE42B2EB69
:1018C000012F1DD1A16B00F40032073918BF01218F
:1018D0008A4215D1E16B554A02EA015100F4C00277
:1018E000A1F500118A420BD1216C4FF07E4200F02D
:1018F000C06002EA016101F17E41884200F0878008
:10190000012002B0BDE8F0873168022821F0807123
:1019100031600DD1FEF71EFF0546306810F0007FE4
:1019200039D0FEF717FF411B03200229F5D9E8E75C
:10193000306810F0205F03D1B86820F00300B86071
:10194000B86838490840B860FEF704FF04463068BC
:1019500010F0007F5BD0FEF7FDFE011B0320022983
:10196000F5D9CEE720F480303060306820F4802054
:101970003060FEF7EFFE0546002F7FF4EAAD3068D9
:1019800010F4003F3FF445AEFEF7E4FE411B032098
:101990006429F4D9B5E704F12C07DAF808006FF0F0
:1019A0000F058ECF05EB02121F4D28400843E16B57
:1019B00010431E4A40EA032002EA01514FF07E42E2
:1019C000A1F500110843216C02EA016101F17E4199
:1019D0000843174901EA47310843CAF8080030684C
:1019E00040F080703060DAF8080040F08070CAF88B
:1019F0000800FEF7AFFE0446306810F0007F06D105
:101A0000FEF7A8FE011B03200229F5D979E7002083
:101A100077E700BFC83300080C000020000000205A
:101A20000060FEFFFFFFEEFE8C809DF90000E0FFEE
:101A30000000FEFF411E0020B0EB116F1CBF012013
:101A40007047044AF023516003490B7007219060EE
:101A50001160704710E000E023ED00E07047B0B582
:101A600004462068626FA56F50F8081F212A18D11C
:101A700011F0800115D0016821F080010160A06E95
:101A800038B1FEF74DFC20B1A06EFEF791FC202886
:101A90001CD02068016821F0C00140F8081B2021FB
:101AA000616702680021222D18D112F0400215D082
:101AB000016821F040010160E06E58B1FEF730FC92
:101AC00040B1E06EFEF774FC202803D11020032102
:101AD000E06703E0204600F0C1FE0021C8B2B0BDBF
:101AE0007047000010B50446B5482168814200D017
:101AF00010BDC06910F0100F08BF10BD2046FFF7E1
:101B0000AEFF0B480121102280F8061221680A62FC
:101B10004FF48072E16E09684968C1F58071A0F8E0
:101B2000041200F20311204600F054F910BD00BF6A
:101B3000C8120020B0B504462068C2690146D0F83A
:101B400000C051F8083F12F00F0F62D00CF49075EE
:101B500003F0010E55EA0E0561D0D30718BF1CF43F
:101B6000807305D001230362E36F43F00103E36751
:101B7000930708D5BEF1000F05D002230362E36F7F
:101B800043F00403E367530708D5BEF1000F05D007
:101B900004230362E36F43F00203E36713070AD5EC
:101BA0000CF0200353EA0E0305D008230362E06F14
:101BB00040F00800E067E06F002861D002EA0C0006
:101BC000800606D5226E22B120469047206800F19B
:101BD0000801E06F096800F0080001F040010843C7
:101BE00039D0204600F03AFE2068816811F0400F9D
:101BF0002CD0816821F040018160E06E30B3214932
:101C00008163FEF7AEFBD8B3E06E816BBDE8B040F8
:101C1000084702EA0C01890601D5216E11E0D102C4
:101C20000AD513F4800107D04FF4801101622046D9
:101C3000BDE8B040FFF712BF02EA0C010A0610D55A
:101C4000616EE9B12046BDE8B04008472046BDE8D6
:101C5000B040FFF745BF2046FFF742FF0020E06796
:101C60000EE049060CD5016821F04001016000201A
:101C70006066202060672046BDE8B04000F056B99D
:101C8000B0BD00BFBD27000810B504469CB1606F11
:101C900028B9002084F87000204600F025F82420A0
:101CA00060672068016821F001010160204600F0B2
:101CB000E3FD012801D1012010BD606A10B120466A
:101CC00000F0E0FC2068416821F4904141608168A7
:101CD00021F02A018160016841F001010160204684
:101CE000BDE8104000F038BD2DE9F04786B004464D
:101CF00001A81421FEF79FFA2068E14988425CD1CF
:101D00003048314E4FF002080027016841F480410D
:101D1000016001A9006800F4804000900098D6F8A6
:101D2000E00B40F00100C6F8E00BD6F8E00B00F045
:101D3000010000900098CDF808804FF4C060019039
:101D4000032003970490072005904FF09040FEF782
:101D500021FC1E4D06F114004FF080092021B246EF
:101D6000C5E900082846C5E90277C5E90497C5E931
:101D700006712F62FEF774FB08B1FEF7D0FA144E1D
:101D80001020E566AC6206F10801C6E900A881E80A
:101D900081023046C6E90577C6E90777FEF760FBA2
:101DA00008B1FEF7BCFA252006210022A666B4621F
:101DB000FEF732FD2520FEF721FD06B0BDE8F087D5
:101DC00000380140601002406C04024020000020F6
:101DD00070000020B0B5044613460A46A06F2028C4
:101DE00005D142B33BB394F87000012801D102251C
:101DF00022E000250120E567626584F8700022205A
:101E0000A4F85830A067E06EC0B1DFF850C01449A4
:101E1000DFF850E000F12C0787E802508563216865
:101E20002431FEF780FB48B11020E067002084F8E1
:101E30007000202060670125E8B2B0BD84F87050C2
:101E40002068016841F480710160816841F00101FE
:101E50008160816841F040018160EDE7572800080A
:101E60001F280008CD270008704770472DE9FC4760
:101E700004469A4616460F46606F202806D1012573
:101E80002FB126B194F87000012804D10225E8B2E0
:101E900002B0BDE8F0874FF000090120C4F87C9043
:101EA00084F8700021206067FEF754FCA4F85060AD
:101EB000A4F852608046A068B0F5805F05D126691D
:101EC000002E0CBFB9463E461BE03E4619E02046B8
:101ED000802100224346CDF800A000F003FEF0B9B7
:101EE0001EB116F8011B206805E039F8021B2068B6
:101EF00000266FF35F210185B4F852000138A4F881
:101F00005200B4F852000028E1D1204640210022BE
:101F10004346CDF800A0002500F0E4FD08B10325FC
:101F2000B5E7202084F870506067B0E77047FEE79F
:101F3000BCB51548154C0122016841F00201016051
:101F4000016801F0020101910199016841F001016C
:101F500001600521006800F00100009000980F204A
:101F6000A0470B4D0F20A847442007210022A0477F
:101F70004420A847452007210122A04745202946A3
:101F8000BDE8BC40084700BF4810024019080008DF
:101F9000FD07000870B586B000201A4C01224FF4EE
:101FA0006075012605901648016841F080010160C6
:101FB000016801F0800100910099016841F0100171
:101FC0000160016801F0100100910099016841F081
:101FD000010101604FF46071006800F001000090A1
:101FE00000982046FEF7ADFB0220CDE9015603968E
:101FF00001A904902046FEF7CDFA06B070BD00BFDF
:102000004C1002400010004810B5BE480C4A002198
:1020100004234FF0100C4FF0170E4FF48074C0E9FA
:10202000002100F1080282E80850C0E90541FEF7EE
:1020300033FE002814BFBDE8104010BDFEF76FB995
:10204000001000A080B50D480D4A00234FF4E13187
:102050004FF00C0CC0E90833C0E90021C0E902339D
:10206000C0E9043CC0E90633FFF70EFE002814BFA8
:10207000BDE8804080BDFEF752B900BF4811002086
:1020800000380140FEE7704770472DE9F041D1F874
:1020900024C0B2F1406F18BFBCF1000F03D08C6AAE
:1020A0000368013C1C61D1F818E00B6ABEF1000F17
:1020B00031D0002B5CD0D0F800808868C8F81C00B4
:1020C00043EA0C00D1E904C5CB69D1E90B674C6B3D
:1020D0003043002B40EA070040EA040040EA854014
:1020E00040EA0C005DD04EEA0207B2F1406F43EACD
:1020F0000703CF6840EA03000B6840EA070040EAA4
:102100000300C8F814001EBF4868C8F81800BDE8EE
:10211000F081BDE8F081002B4CD0D0F800E08F6852
:10212000CEF81C7043EA0C07D1E904C5CB69D1E9AC
:102130000B46486B3C43002B44EA060440EA04008B
:1021400040EA854040EA0C0451D043EA0200CB68E3
:10215000B2F1406F40EA040040EA0300CEF81400F8
:102160001EBF4868CEF81800BDE8F081BDE8F081D8
:1021700001F12C07CB694C69E0CF002B45EA0C0537
:1021800046EA050647EA060747EA844C35D04EEA98
:102190000207CE683B430F6843EA0C0333433B43DB
:1021A0001AE042EA0E02096810430843C8F8140016
:1021B000BDE8F081CB693BB34CEA0207D1F80CC013
:1021C0004E69D1E90B543B434F6B2B4323433B43B5
:1021D00043EA864343EA0C030068B2F1406F43616F
:1021E0001EBF49688161BDE8F081BDE8F08144EA25
:1021F0000200CEF81400BDE8F08142EA0E02096840
:1022000042EA0C0211430FE0BCF1000F08BFBDE829
:10221000F0814B69D1E90B7642EA0C02496B3A43F3
:102220003243114341EA834100684161BDE8F081D6
:10223000806A00210163416290F8391008290BD1AE
:1022400000680221C160016841F400310160016849
:1022500041F0020101607047012180F83910FEF75A
:1022600008BC000080B58EB0CDE9000100204FF41D
:1022700000510290CDE903104FF48071059241F2B4
:102280008832CDE906130890CDE90B000D90109827
:102290006946099011980A901A48FEF7ACFB00288D
:1022A00018BF01200EB080BD2DE9F843DDF8209065
:1022B000984616460F46044609F1010520688068D5
:1022C000384018BF0120B04213D0002DF6D0FEF7E1
:1022D00041FAB9F1000F03D0A0EB08004845EDD951
:1022E000042084F83900E06B40F00100E063012035
:1022F00000E0002001B0BDE8F08300000148FEF7D7
:10230000BBBB00BF04110020F8B5DC4F04460D46EE
:10231000F86810F0030F10D0F868216800F003028D
:1023200001208A427ED100297CD0F8686168C0F320
:1023300002100130884219D125E0206803280DD011
:10234000022806D0012811D1396811F0020F0DD0F2
:102350000EE0396811F4806F08D009E0396811F493
:10236000003F05D1396811F4802F01D1012059E0D7
:10237000F96862686FF00F0321F0730103EB02123A
:1023800008431043F860386820F080603860FEF73A
:10239000E1F90646386810F0006F05D0FEF7DAF96B
:1023A000801B0228F6D936E0CDB16148012D4FF0EF
:1023B000FF3208BF00F1B4603969012D00EA010065
:1023C00004F1140108BF04F11001012D096802EBAA
:1023D00051014FF0190208BF1522914006E03869FB
:1023E0005449554A0840E16802EA41310843A1686E
:1023F00040EA01203861386840F080603860FEF7BC
:10240000A9F90546386810F0006F06D1FEF7A2F969
:10241000401B0228F6D9032004E0A069396908436B
:1024200038610020C0B201B0F0BD00BFF8B5934FD5
:1024300004460D46F86810F0030F10D0F8682168C4
:1024400000F0030201208A426ED100296CD0F868A6
:102450006168C0F302100130884219D125E020687C
:1024600003280DD0022806D0012811D1396811F0B7
:10247000020F0DD00EE0396811F4806F08D009E02A
:10248000396811F4003F05D1396811F4802F01D16A
:10249000012049E0F96862686FF00F0321F07301D1
:1024A00003EB021208431043F860386820F08050B4
:1024B0003860FEF74FF90646386810F0005F05D027
:1024C000FEF748F9801B0228F6D926E078694DB15D
:1024D00017494FF07E420840216902EA016101F18B
:1024E0007E4105E01349144A0840E16802EA41319F
:1024F0000843A16840EA01207861386840F08050C4
:102500003860FEF727F90546386810F0005F06D1FD
:10251000FEF720F9401B0228F6D9032004E0606989
:102520007969084378610020C0B201B0F0BD00BFF6
:10253000FF80FFF9FF80FDFF0000FEFFBCB51F4DCF
:102540000446286810F0805F0FD1286840F0805062
:102550002860286800F0805001900198FEF7CAF9C1
:10256000296821F08051296001E0FEF7C3F9B0F538
:10257000007F06D1812C08D30120A02C88BF022027
:102580000EE0802C03D903200AE0002008E0A4F12B
:102590007000802CB0FA80F04FEA501008BF022083
:1025A00007490A6822F0070202430A60096801F03D
:1025B0000701081A18BF012002B0B0BD5810024030
:1025C000002002407047FEF7C9B8F0B5B9B028AD99
:1025D000202105F10800FDF72EFE01AC8421201D0D
:1025E000FDF729FE4FF4803001260327142129909E
:1025F000022028963290CDE9337635910721CDE936
:10260000361038902846FEF773FF0F20002504216E
:10261000CDE9230723A8CDE925552795FEF760FED0
:10262000204601960F95FEF7ABFC4FF40070FEF7C5
:102630002FF939B0F0BD000010B50F48104CD0F89C
:10264000801041F47001C0F880100C490A6842F013
:1026500001020A6000228A600B6823400B604FF47D
:102660008053CB600B6823F480230B608A614FF0AA
:102670000061016010BD00BF08ED00E000100240E5
:10268000FFFFF6EA416A11F0010F08D002685368B3
:10269000D0F828C023F4003343EA0C0353608A07C0
:1026A00008D502685368D0F82CC023F4803343EA7D
:1026B0000C0353604A0708D502685368D0F830C04D
:1026C00023F4802343EA0C0353600A0708D5026809
:1026D0005368D0F834C023F4004343EA0C0353603A
:1026E000CA0608D502689368D0F838C023F480532E
:1026F00043EA0C0393608A0608D502689368D0F811
:102700003CC023F4005343EA0C03936080B54A06AF
:1027100015D5D0F800E0DEF804C0036C2CF480126C
:10272000B3F5801F42EA0302CEF8042007D1DEF899
:102730000420436C22F4C0021A43CEF80420090698
:10274000BDE8804058BF704701684A68806C22F439
:102750000022104348607047BCB504460020E06783
:10276000FDF7F8FF05462068016811F0080F0AD050
:1027700011484FF4001100222B460090204600F033
:10278000B1F970B92068006810F0040F0BD00A4846
:102790004FF4800100222B460090204600F0A2F961
:1027A00008B1032005E020210020616784F8700053
:1027B000A167C0B202B0B0BDFFFFFF01806A002177
:1027C000A0F85A10A0F85210FFF78AB910B5846A21
:1027D000636FA06F21688A68212B0BD112F08002F1
:1027E00008D00022A4F852200A6822F0C0020A6031
:1027F000202262678968222808D111F0400005D0A4
:102800000020A4F85A00204600F028F8E06F40F0BD
:102810001000E0672046BDE81040FFF761B901688D
:10282000806A096811F0200F18BFFFF71DBB002157
:10283000A0F85A1001680A6822F480720A608A6857
:1028400022F001028A608A6822F040028A60202118
:102850008167FFF709BB806AFFF707BB01680A6859
:1028600022F490720A608A6822F001028A600021D4
:10287000016620218167704770B504468C4D8D4EEE
:102880002168A068D4E904231043B14240EA03025E
:10289000E0690B6842EA000203EA050342EA030228
:1028A0000A604A68E36822F4405242EA03024A603E
:1028B000A3691CBF256A2B438D6825F430652B4323
:1028C0008B607D4B99421CD07C4B994228D07C4B2D
:1028D00099422BD07B4B99422ED0B14232D07A4BC9
:1028E000994240F07180794A7949126801F5806116
:1028F00082F0020202F0030242EA820221FA02F5A9
:1029000032E0724B022542F241021B6885EA9303D2
:1029100003F00305AB0022FA03F345EA85021FE04A
:102920006A4A0223126883EA121210E0674A0223FD
:10293000126883EA92120AE0644A0223126883EA68
:10294000122204E0614A0223126883EA922202F012
:10295000030242F24105930042EA820225FA03F3A0
:102960005B4DD540B14220D005F01F01B0F5004FBE
:102970000DD10120082900F29780DFE801F005431E
:102980004695499595954F00FEF740FD42E00120A0
:10299000082900F28980DFE801F005515487578744
:1029A00087875C00FEF732FD50E003F00F05012041
:1029B000042D00F279804749DFE805F0031009761D
:1029C0000E00FEF723FD04E008231025CAE7FEF7FA
:1029D0003BFD014611B948E04FF400416268012017
:1029E00002EB420399425FD3130399425CD8012062
:1029F000042D59D8DFE805F0033B3E584C00FEF7A4
:102A000005FD39E0FEF70EFD04E06168324A08E09A
:102A1000FEF71AFD616840004A0803E061684FF460
:102A2000803248081044B0FBF1F04FF6F0710140DD
:102A3000102938D3C0F34200084314E0FEF7F2FC3B
:102A400004E06168234A07E0FEF7FEFC61684A087B
:102A500003E061684FF4004248081044B0FBF1F015
:102A600080B210281FD32168C86000201CE01B48DA
:102A7000002104E0FEF7E8FC6268010E000210EBA2
:102A800052004FF0000341F10001FDF799FB05E012
:102A90004FF4000000EB5200B0FBF2F0104AA0F53A
:102AA00040719142DFD901200021C4E9181170BDA5
:102AB000F369FFEF00800040004400400048004000
:102AC000004C004000500040003801408810024097
:102AD000020102000024F4000048E801000024F490
:102AE000FFFC0F002DE9F843DDF8209098461646CC
:102AF0000F46044609F101052068C0693840C01B33
:102B0000B0FA80F04009B0421BD1002DF4D0FDF79F
:102B100021FEB9F1000F03D0A0EB08004845EBD926
:102B20002068016821F4D0710160816821F0010101
:102B3000816020200021606784F87010A067032066
:102B400000E00020C0B201B0BDE8F08310B5904CA9
:102B50002046FEF7EFFF2046BDE81040FEF7C2BF5B
:102B6000FEE77CB504460125002606200021002250
:102B70000023CDE90065FFF775FB00F041F8202048
:102B8000214600224FF48063CDE90065FFF76AFB20
:102B9000BDE87C4000F034B81CB504464FF04070EE
:102BA0004FF48063CDE900026B200822FFF75AFB47
:102BB0006D48214641F28832FEF71CF9002818BF03
:102BC000012002B010BD00BFF8B502204FF08071A7
:102BD00000224FF48063CDE9001090200021FFF720
:102BE00041FB61480DF10E0141F28832FEF702F916
:102BF0009DF80E009DF80F1041EA002004B080BD42
:102C0000FEB5594C01264FF080770DF10B050120E0
:102C10008DF80B60C00708BFFEBD05200021002213
:102C20000023CDE90076FFF71DFB2046294641F23F
:102C30008832FEF7DFF89DF80B00EBE72DE9F84F3F
:102C400089461446DFF8888082464E464FEA193B93
:102C50006FF31F36C6F58057A74228BF27464FEAB5
:102C60000B3540464FF480522946FFF795FF464406
:102C70000020B84215D2315C0130FF29F9D0284636
:102C8000FFF76FFF5046394604E010F8012B013979
:102C900006F8012B0029F8D1404629464FF480520E
:102CA00002E0504649463A4600F017F8BC4208BFD9
:102CB00000F010B8E41BB944BA444FF480570BF14C
:102CC000010B0026B4F5805F38BF2746C7E700BF79
:102CD000B800002018BCBDE8E08FF8B50D460646E8
:102CE0001446E8B2C0F58077A74228BF2746304691
:102CF00029463A4600F00EF8BC4208BFF8BDE41B76
:102D00003D443E44B4F5807F274628BF4FF480778A
:102D1000EDE700007CB516460D460446B6F5807F0B
:102D200088BF7CBD0120002100220023CDE90010D6
:102D300006200021FFF796FAFFF762FF4FF0407080
:102D4000294600224FF48063CDE900063220FFF7C8
:102D500089FA0548214641F28832FEF7B0F8BDE80D
:102D60007C40FFF74DBF00BF041100201CB5084C8C
:102D7000019001A901224FF6FF732046FFF776F874
:102D80002068C16911F0800FFBD0019802B010BD1E
:102D90004811002070B5FDF7E7FCFFF716FCFFF7C0
:102DA000F9F8FFF7C5F8FFF74DF9FFF72DF927A060
:102DB00000F0F8FAFFF708FF2C4C01462CA0218008
:102DC00000F09CF820884EF61771884202D132A09C
:102DD00000F0E8FA3B493C4C0020002202E08A5413
:102DE000A0540132B2F5807FF9D136484FF4FE018C
:102DF0004FF48072FFF722FF3448354DA847204634
:102E00004FF4FE014FF48072FFF7C6FE3148A84729
:102E100031A0A847354D002604E0A15D284600F00A
:102E20006DF80136B6F5807FF7D131A000F0BAFA1F
:102E3000244825494FF48072FDF708FA002814BF92
:102E40002C482D4800F0AEFAFEE700BF205732357F
:102E500051313238465620517561645350492054DF
:102E6000657374202E2E2E2E0D0A0D0010000020EA
:102E700020573235513132384656205175616453EE
:102E8000504920446576696365204944203A2030E2
:102E9000782534580D0A0000205732355131323828
:102EA00046562051756164535049204465766963E4
:102EB00065206E616D65203A2057323551313238C8
:102EC0000D000000D0140020C81100201F3400089D
:102ED000A533000810340008515350492052656151
:102EE000642044617461203A200D00002F340008F2
:102EF0000D0A0D0060340008403400080FB4054B83
:102F000010B503A9044A029800F018F810BC5DF847
:102F100014FB00006D2D0008B810002002E008C866
:102F2000121F08C1002AFAD170477047002001E043
:102F300001C1121F002AFBD1704700002DE9FF4F8D
:102F40008DB00F460546002606E025280BD0DDE9AA
:102F50000F1290476D1C761C28780028F5D111B00F
:102F6000304600F0F3B90024A246A1460122EC4904
:102F700000E0044315F8013F203B02FA03F0084249
:102F8000F7D128782A2810D06FF02F022878A0F1E6
:102F90003001092914D80AEB8A0102EB410144F0FF
:102FA000020400EB010A6D1CF0E701CF5FEA000AA2
:102FB00003D544F40054CAF1000A44F002046D1C25
:102FC00028782E2817D115F8010F44F004042A2878
:102FD0000ED06FF02F022878A0F1300109290AD80D
:102FE00009EB890102EB410100EB01096D1CF2E7DD
:102FF00057F8049B6D1C28786C280FD006DC4C28F1
:1030000017D068280DD06A2814D104E0742810D095
:103010007A280FD10DE044F400140AE044F480143F
:1030200001E044F440146978814202D104F580142F
:103030006D1C6D1C2A786E2A1FD00CDC632A31D0DF
:1030400004DC002A8BD0582A11D1A3E0642A68D06E
:10305000692A0CD165E0732A2ED004DC6F2A73D064
:10306000702A04D19BE0752A6FD0782A6ED0104662
:10307000DDE90F129047761C50E1C4F3025002289C
:1030800006D0032809D0042801CF09D0066045E105
:1030900001CFF117C0E9006140E101CF06803DE1B9
:1030A00006703BE117F8040B8DF8000000208DF846
:1030B0000100EB46012003E057F804BB4FF0FF305E
:1030C00061074FF0000102D40DE008F101018846CC
:1030D00049450FDA8045F8DB1BF808100029F4D1C8
:1030E00008E008F1010188468142FADB1BF808106C
:1030F0000029F6D1DDE90F23AAEB0800814621461D
:1031000000F039F9304400EB080604E0DDE90F1265
:103110001BF8010B9047B8F10108F7D22146484649
:10312000F7E00A21C4F302534FF0000B0891022B81
:1031300004D001CFC117032B09D00AE0FF1D27F0EF
:103140000707F7E8020108E032E01FE020E000B2E4
:10315000C117042B01D140B2C117031E71F1000346
:1031600007DA4FF0000CD0EB0C006CEB01012D23C3
:1031700002E0230504D52B238DF82430012303E03E
:10318000E30701D02023F7E7984658E00A2110E032
:1031900010210EE010204FF0000B08900CE01021E1
:1031A0004FF0000B44F004044FF00809089103E0CD
:1031B00008214FF0000B0891C4F30253022B04D0F6
:1031C00001CF0021032B06D006E0FF1D27F00707E3
:1031D000F7E8020103E080B2042B00D1C0B24FF047
:1031E000000823072BD5702A07D0DDF820C08CF00B
:1031F000100C5CEA0B0C05D00EE040238DF8243057
:10320000012308E050EA010306D030238DF8243072
:103210008DF8252002239846DDF820C08CF0080C9C
:103220005CEA0B0C0BD150EA010301D1630706D510
:1032300030238DF824304FF00108A9F10109582AF4
:1032400004D038A20B9208AA0A920BE03AA2F9E73E
:103250005B46089AFCF7B4FF0B9B9B5C0A9A521ED4
:103260000A92137050EA0102F2D10A98ADEB000005
:1032700000F1200B600702D524F4803401E04FF008
:103280000109D94502DDA9EB0B0000E0002000EBAD
:103290000B0141440890AAEB010AE00306D4DDE9E2
:1032A0000F232146504600F066F806444FF000090F
:1032B00008E009A911F80900DDE90F12904709F1AA
:1032C0000109761CC145F4DBE0030CD5DDE90F23D1
:1032D0002146504600F04FF8064404E0DDE90F12A5
:1032E00030209047761C0899481E08900029F5DC8C
:1032F00008E00A980A990078491C0A91DDE90F1242
:103300009047761CBBF10001ABF1010BF1DC2146CB
:103310005046DDE90F2300F01CF806446D1C1BE647
:10332000092801003031323334353637383961629B
:10333000636465660000000030313233343536375F
:1033400038394142434445460000000030BCBDE8E6
:10335000C08F2DE9F041044600251E46174688041B
:1033600004D405E039462020B0476D1C641EF9D511
:103370002846BDE8F0812DE9F041044600251E46AF
:103380009046C80301D5302700E02027880404D5E3
:1033900005E041463846B0476D1C641EF9D5284605
:1033A000BDE8F08110B5044601E0FFF7DFFC14F83A
:1033B000010B04490028F8D1BDE810400A20FFF7AE
:1033C000D5BC0000B8100020000000000000000084
:1033D00001020304060708090000000001020304BB
:1033E000A0860100400D0300801A060000350C0085
:1033F00040420F0080841E0000093D0000127A0048
:103400000024F40000366E010048E801006CDC0284
:1034100020515350492052656164206F6B0D00208C
:1034200051535049205772697465206F6B0D0030FD
:1034300078253032582020000000000000000000F5
:103440002057323551313238465620517561645318
:1034500050492054657374204F4B0D00000000004C
:1034600020573235513132384656205175616453F8
:1034700050492054657374204661696C65640D0081
:10348000A034000800000020200000001C2F0008CD
:10349000C034000820000020B01900002C2F0008C4
:1034A00010000000010000000000000000093D00C5
:1034B00017EF000000000000000000000000000006
:040000050800018965
:00000001FF
