:020000040800F2
:10000000F8080020390200080F1C0008551B0008E2
:100010000D1C0008D3070008A925000800000000F7
:10002000000000000000000000000000891F000820
:10003000D507000800000000111C00088B1F0008F5
:10004000530200085302000853020008530200083C
:10005000530200085302000853020008530200082C
:10006000530200085302000853020008530200081C
:10007000530200085302000853020008530200080C
:1000800053020008530200085302000853020008FC
:1000900053020008530200085302000853020008EC
:1000A00053020008530200085302000853020008DC
:1000B00053020008530200085302000853020008CC
:1000C00053020008530200085302000853020008BC
:1000D00053020008A125000853020008530200083B
:1000E000530200085302000853020008530200089C
:1000F000530200085302000853020008530200088C
:10010000530200085302000853020008530200087B
:10011000530200085302000853020008530200086B
:10012000530200085302000853020008530200085B
:10013000530200085302000853020008530200084B
:10014000530200085302000853020008530200083B
:10015000530200085302000853020008530200082B
:10016000530200085302000853020008530200081B
:1001700053020008530200080000000000000000C5
:10018000530200085302000800F002F800F044F89F
:100190000AA090E8000C82448344AAF10107DA45E2
:1001A00001D100F039F8AFF2090EBAE80F0013F0F0
:1001B000010F18BFFB1A43F0010318476425000024
:1001C00084250000103A24BF78C878C1FAD85207B5
:1001D00024BF30C830C144BF04680C6070470000C1
:1001E0000023002400250026103A28BF78C1FBD840
:1001F000520728BF30C148BF0B607047642900F028
:100200002581732900F07582002070471FB502F028
:100210005DFA1FBD10B510BD00F0A1FA1146FFF741
:10022000F5FF02F0C3F900F0BFFA03B4FFF7F2FFE5
:1002300003BC00F0C7FA000009488047094800479E
:10024000FEE7FEE7FEE7FEE7FEE7FEE7FEE7FEE786
:10025000FEE7FEE704480549054A064B70470000E3
:10026000FD1F000889010008F8020020F80800209E
:10027000F8040020F804002053EA020C00F0698022
:100280002DE9F04B4FF00006002B1FBFB3FA83F5AA
:1002900003FA05F424FA05F65E4012BF1643B2FADB
:1002A00082F502FA05F4C5F120051EBF22FA05FC0D
:1002B00044EA0C04203556EA044C4FEA144418BFB3
:1002C000641C4FF000084FF00009904271EB030CE2
:1002D00039D3002919BFB1FA81F701FA07F6B0FA4C
:1002E00080F700FA07F6C7F120071EBF20FA07FCC7
:1002F00046EA0C062037B6FBF4FCA7EB0507103FD7
:1003000007F01F0BCBF120062CFA06F60CFA0BFBBC
:1003100044BFB3460026202FA4BF5E464FF0000B1B
:100320005BEA060C08BF4FF0010B19EB0B0948EB19
:100330000608ABFB027C06FB02CC0BFB03CCC01B0C
:1003400071EB0C01C1E70B46024641464846BDE849
:10035000F08B13B54FF000004FF00001AFF30080B9
:10036000BDE81C40704700000FB41CB5074B06AA3F
:100370007B4469460090059800F091F90020694699
:1003800000F0A0F91CBC5DF814FB00005103000054
:100390002DE9F0410E460446002020622046E16827
:1003A000884730B3252805D0D4E901219047206A39
:1003B000401CF2E7E168204600278847050018D076
:1003C000A5F14100192802D820354FF400673246C4
:1003D000294620462760FFF711FF40B1012804D0CD
:1003E000F61D26F007060836D8E7361DD6E728465C
:1003F000DAE7206ABDE8F08170B50C460546012AAF
:1004000005D02878800600D5EA69002302E00123A0
:1004100005E05B1C934202D2E05C0028F9D1A86998
:10042000E618C01AA861286A184428622846AFF363
:10043000008004E0D5E9012114F8010B9047B44293
:10044000F8D32846AFF3008070BD00002DE9F041DD
:100450000646002410687529314616A510D0AFF362
:100460000080002802DA404213A507E031688A07BD
:1004700001D512A502E0490704D511A5012401E028
:10048000AFF3008000210A2206F1240709E0B0FB47
:10049000F2FCB0FBF2F302FB1C003030785418463B
:1004A000491C0028F3D123462A463046BDE8F041D6
:1004B00000F096B8000000002D0000002B000000A6
:1004C0002000000010B5431C02E010F8011B71B1C0
:1004D0008107FAD14FF0013202C88C1A8C4314EA1A
:1004E000C211F9D0C01A0A0603D0C01E10BDC01A2E
:1004F00010BD0A0401D0801E10BD0902FCD0401EB0
:1005000010BD032A40F2308010F0030C00F015807B
:1005100011F8013BBCF1020F624498BF11F801CB06
:1005200000F8013B38BF11F8013BA2F1040298BF6B
:1005300000F801CB38BF00F8013B11F0030300F0D5
:10054000DC80083AC0F0088051F8043B083A51F8C2
:1005500004CBA0E80810F5E7121D5CBF51F8043B7E
:1005600040F8043BAFF30080D20724BF11F8013BF1
:1005700011F801CB48BF11F8012B24BF00F8013B53
:1005800000F801CB48BF00F8012B70474FF0000284
:1005900000B5134694469646203922BFA0E80C5079
:1005A000A0E80C50B1F12001BFF4F7AF090728BF54
:1005B000A0E80C5048BF0CC05DF804EB890028BFD0
:1005C00040F8042B08BF704748BF20F8022B11F0F9
:1005D000804F18BF00F8012B704770477047704775
:1005E0002DE9F0470D4699469246044600F124084D
:1005F0000168880604D5E06921F01001216000E05F
:100600000120A84201DD471B00E00027A1697A19FB
:1006100002EB0900081AA0612078C00602D4204627
:10062000AFF30080002608E0D4E901211AF80600A3
:100630009047206A401C761C20624E45F4DB2078EF
:10064000C0060AD52046AFF3008006E0D4E90121B8
:1006500030209047206A401C2062381EA7F1010715
:10066000F4DC07E0D4E9012118F805009047206A7E
:10067000401C2062281EA5F10105F3DC2046AFF3E3
:1006800000802078000602D50220BDE8F087012016
:10069000FBE7000001694A1C02610878704700B559
:1006A0008FB0CDE901310021059105497944CDE9AB
:1006B000031011466846FFF76BFE0FB000BD000047
:1006C000E5FFFFFF0A6802F8010B0A60704710B5EA
:1006D000436913B1AFF3008001E0FFF78DFE012005
:1006E00010BD127800F124010A7000224A70012224
:1006F000EDE711684FF0FF32E9E710B5203AC0F09E
:100700000B80B1E81850A0E81850B1E81850A0E8E4
:100710001850203ABFF4F5AF5FEA027C24BFB1E87D
:100720001850A0E8185044BF18C918C0BDE81040C0
:100730005FEA827C24BF51F8043B40F8043B08BFC9
:100740007047D20728BF31F8023B48BF11F8012B90
:1007500028BF20F8023B48BF00F8012B70477546C0
:1007600000F02CF8AE4605006946534620F007001D
:10077000854618B020B5FFF76DFDBDE820404FF06D
:1007800000064FF000074FF000084FF0000BAC469A
:10079000ACE8C009ACE8C009ACE8C009ACE8C009E5
:1007A00021F007018D46704710B50446AFF3008075
:1007B0002046BDE81040FFF738BD000000487047F4
:1007C0001000002001491820ABBEFEE72600020001
:1007D0007047FEE77047704790F8251002291DD139
:1007E000016801230A6822F00E020A600A6822F0FA
:1007F00001020A60D0E9101202F01C0203FA02F2B0
:100800004A60002180F8241080F82530826B42B1C4
:1008100080B590470021BDE8804002E00421C1631B
:100820000121084670470000B0B5044600F0ECF81E
:1008300005469148611C406818BF044400F0E4F884
:10084000401BA042FAD3B0BD2DE9FF4F624A0727F3
:100850004FF0000A4FF0000E0026904200F138429F
:100860004FEAB22308BF0627062B38BF4FEAB2274C
:1008700000F12C020092021D019702920B6833FADC
:1008800006F708BF00F0B4B8012202FA06F713EA2F
:10089000070B00F09480D1F804C04CF01004122C27
:1008A00011D10EF01C050F2202FA05F44E4A02EA9D
:1008B00056020244136AA3430C6904FA05F52B435C
:1008C0001362D1F804C0032304680CF00309BCF1DF
:1008D000120F03FA0AF309FA0AF224EA03046FEA90
:1008E000030842EA040202606FD8012202FA0CF205
:1008F00012F0061F69D08268CB68042502EA08025C
:1009000003FA0AF31A438260029C2CFA05F2236868
:1009100002F00102B240BB431A432260C2688B68F6
:1009200002EA080203FA0AF31A43C2605FEACC0241
:1009300045D52C4A0EF00C070F25BD4013461A680A
:1009400042F001021A601A68244B02F001021C46B0
:10095000039226F00302039B2244244B9C4652F848
:100960000C30AB43019D05FA07F73B4342F80C30CE
:1009700022684F6842EA0B0317F4803F08BF22EA5F
:100980000B0317F4003F2360626842EA0B0308BFC1
:1009900022EA0B0317F4801F6360A26842EA0B038C
:1009A00008BF22EA0B030E4A17F4001FA360154686
:1009B0002A6842EA0B0308BF22EA0B032B600AF104
:1009C000020A0EF1040E013658E7B9F1030FA5D162
:1009D000009C032599E700BF00180048000401406F
:1009E0000C04014060100240FCFFFF7F08FCFFFF89
:1009F0001FBCBDE8E08F00F11803002A08BF00F11A
:100A000028031960704700001B488068704700BFCA
:100A100019484168826811448160704780B503209D
:100A200000F07EF8002000F007F808B1012080BD3A
:100A300000F024F8002080BD70B50F4E04467068A9
:100A4000B0B14FF47A71B1FBF0F054490968B1FBD1
:100A5000F0F000F007FE01250F2C0AD848B94FF03E
:100A6000FF3021460022002500F02EF8346000E01F
:100A70000125284670BD00BF0000002082B00A4852
:100A8000816841F001018160816801F001010191FB
:100A90000199016841F080510160006800F08050C8
:100AA0000090009802B0704758100240002808DB00
:100AB00000F01F010122400902FA01F1014A42F847
:100AC0002010704700E100E0B0B500F00F031A4DB0
:100AD000124CB0F1FF3FA3F104032B4403F10C03CC
:100AE000C8BF03192868C0F30220051DC41E80F08A
:100AF0000700072D4FF0010538BF0024042828BF48
:100B0000042005FA00F00138084005FA04F10F311D
:100B1000A0401140084300011870B0BD00E400E09F
:100B200005494FF6FF030A681A4060F30A2203489A
:100B300010430860704700BF0CED00E00000FA05AC
:100B4000F249B0F5007F0A6802F4C0621BD1B2F529
:100B5000007F20D00868012262F34A203222086018
:100B60000E48006850430E4AB0FBF2F0C0434A6999
:100B700018B1013012F48062F9D1486910F4806F25
:100B800009D0032008E0B2F5806F04D00868022283
:100B900062F34A2008600020C0B270470C000020B9
:100BA00040420F00D948006800F4C060704700BFA1
:100BB0002DE9FC470446D44F6078000721D5606ECC
:100BC0004FEAB051032908D8DFE801F002091216F4
:100BD000201D002101F01EF806E0012612E004F1BC
:100BE0002000002101F0A8F806465EB9606E03E01F
:100BF000396841F480313960F96F21F440010843CC
:100C0000F86700266078C00601D4B2462BE0A06EDB
:100C10004FEA3060032809D8B246DFE800F0020C42
:100C20001318201D002100F0F5FF09E04FF0010A24
:100C30004FF0010818E004F12000002101F07CF8D9
:100C4000824604E03868B24640F480303860BAF139
:100C5000000FD04608D1F86FA16E4FF0000A20F0C7
:100C600040700843F867B046A078800701D4C246B8
:100C700068E0F86C10F0805F0BD1F86C4FF0010960
:100C800040F08050F864F86C00F0805001900198BA
:100C900001E04FF000099D4D286840F48070286005
:100CA000FFF7B2FE0646286810F4807F07D1FFF7F1
:100CB000ABFE801B0228F6D94FF0030A3BE0BAF1E5
:100CC000000F38D1D7F8840010F4407029D0D4F840
:100CD0008410884211D0D7F88400D7F8841041F4EA
:100CE000803120F44070C7F88410D7F8841021F4C4
:100CF0008031C7F88410C7F88400C00711D0FFF70F
:100D000083FE064641F288354FF0030AD7F8840087
:100D100010F0020F05D1FFF777FE801BA842F5D92E
:100D200009E0D7F88400D4F88410C24620F440705B
:100D30000843C7F88400B9F1000F1EBFF86C20F01B
:100D40008050F864206810F0010F05D0F96FA26B95
:100D500021F003011143F967810705D5F96FE26BB3
:100D600021F00C011143F967410705D5F96F226C99
:100D700021F030011143F967010705D5F96F626C65
:100D800021F0C0011143F967C10605D5F96FA26CC6
:100D900021F440711143F967810605D5F96FE26CC2
:100DA00021F440611143F967810505D5F96FE26DC2
:100DB00021F440211143F967410505D5F96F226EF1
:100DC00021F440111143F967410605D5F96F226DF1
:100DD00021F440511143F967010605D5F96F626DA1
:100DE00021F440411143F967C10505D5F96FA26DA2
:100DF00021F440311143F967810419D5FA6FE16E8E
:100E000022F04062B1F1806F42EA0102FA6707D036
:100E1000B1F1006F0CD1396841F48011396007E0FD
:100E2000201D012100F0F6FE002818BF8246206830
:100E3000010319D5FA6F216F22F04062B1F1806F82
:100E400042EA0102FA6707D0B1F1006F0CD13968AC
:100E500041F48011396007E0201D012100F0DAFE25
:100E6000002818BF82462068410319D5FA6F616FC8
:100E700022F04062B1F1806F42EA0102FA6707D0C6
:100E8000B1F1006F0CD1396841F48011396007E08D
:100E9000201D012100F0BEFE002818BF82462068F8
:100EA000400419D5F96FA06F21F04051B0F1005FF7
:100EB00041EA0001F96707D0B0F1805F0CD1201D35
:100EC000022100F0A7FE04E004F12000022100F05E
:100ED00033FF002818BF8246206810F4004F05D069
:100EE000F96FE26F21F080411143F967C00306D525
:100EF000F86FD4F8801020F000400843F86750469F
:100F000002B0BDE8F08700BF0C1002400070004046
:100F10002DE9F04104468846002C00F086807C4E86
:100F20004FF48050315801F0070141450AD2315841
:100F300021F0070141EA08013150305800F0070064
:100F4000404572D1206810F0010F31D0606802284E
:100F500006D0032809D1316811F0007F0CD164E07C
:100F6000316811F4003F07D15FE0316810B14905E5
:100F700002D45AE0890758D5B168354621F00301FB
:100F80000843B060FFF740FD064641F28837284627
:100F90008068616800F00C00B0EB810F06D0FFF7AD
:100FA00033FD801BB842F2D903203FE020682E4673
:100FB000810705D5B168A26821F0F0011143B16045
:100FC0004FF48051725802F0070242450AD9725814
:100FD00022F0070242EA08027250715801F007013C
:100FE000414522D1410705D5B168E26821F4E061AD
:100FF0001143B160000706D5B068216920F4605044
:1010000040EAC100B06000F037F8B168094AC1F3A6
:101010000311515C01F01F01C840144908600648E3
:101020000068BDE8F041FFF707BD0120C0B2BDE890
:10103000F08100BFD6260008000000200B480C49B4
:101040000C4A00680968C1F30221515C01F01F01DC
:10105000C840704705480649064A00680968C1F358
:10106000C221515C01F01F01C84070470C000020F4
:1010700008100240E626000825498A68C86812F070
:101080000C0205D00C2A21D100F0030001281DD14B
:101090000868224B10F0080F19BF08680009D1F842
:1010A0009400000A002A00F00F0053F8200008BF47
:1010B00070470C2A1CBF00207047CA6802F0030268
:1010C000022A0DD0032A08BF13480AE002F00F00DD
:1010D000042804BF0F487047082816D10E487047EF
:1010E0000C48D1F80CC0CB68C9680222C1F3416139
:1010F00002EB4101C3F306225043CCF3021201324A
:10110000B0FBF2F0B0FBF1F070470020D1E700BF78
:10111000001002400024F40000127A00F0260008BB
:101120002DE9FC470446002C00F00282DC49DD4E2C
:1011300048688A4600F00C08886800F003092078A7
:10114000C00629D42078C0077BD0B8F1080F70D032
:10115000B8F10C0F08BFB9F1030F6AD06768B7F593
:10116000803F07D03068B7F5A02F40F0138240F4DD
:1011700080203060306840F480303060FFF744FCFD
:101180000546306810F4003F5BD1FFF73DFC411B82
:1011900003206429F5D9CCE1B8F1000F1CD0B8F1D7
:1011A0000C0F08BFB9F1010F16D0A16930680029F2
:1011B00000F09B8040F001003060FFF725FC054601
:1011C000306810F0020F40F0A280FFF71DFC411BB9
:1011D00003200229F4D9ACE13068554610F0020F23
:1011E00003D0A069002800F0A381206A316811F0C3
:1011F000080F06BFD5F890100909316801F0F00119
:10120000884249D900F022FE002840F091813068E0
:1012100040F0080030603068216A20F0F000084398
:1012200030602868E16920F47F4040EA01202860AE
:1012300047E0306810F4003F03D06068002800F0F9
:1012400077812078800740F18E80B8F1040F1AD0A2
:10125000B8F10C0F08BFB9F1020F14D0E168306883
:10126000002967D040F480703060FFF7CDFB054661
:10127000306810F4806F6ED1FFF7C6FB411B03206E
:101280000229F5D955E13068524610F4806F63D0D9
:10129000E068002860D14BE1316841F0080131601D
:1012A000316821F0F001014331602968E26921F4DD
:1012B0007F4141EA0221296000F0C8FD002840F08A
:1012C0003781FFF7D9FE6968DE4AC1F30311515C2B
:1012D00001F01F01C840DC490860DC480068FFF7E6
:1012E000ABFB002840F025812CE720F001003060A6
:1012F000FFF78AFB0546306810F0020F3FF422AF7B
:10130000FFF782FB411B03200229F4D911E1306869
:10131000524640F0080030603068216A20F0F0004A
:10132000084330601068E16920F47F4040EA012002
:10133000106007E720F480703060FFF765FB05461A
:10134000306810F4806F0ED0FFF75EFB411B032066
:101350000229F5D9EDE052461068216920F0F850D5
:1013600040EA0160106020785746000729D561697E
:10137000D7F8900089B140F00100C7F89000FFF75E
:1013800043FB0546D7F8900010F0020F19D1FFF784
:101390003BFB401B0228F5D962E020F00100C7F8B2
:1013A0009000FFF731FB05465746D7F8900010F044
:1013B000020F06D0FFF728FB411B03200229F3D9B7
:1013C000B7E02078400777D5786D10F0805F0BD1BB
:1013D000786D4FF0010940F080507865786D00F02D
:1013E00080500190019801E04FF00009984FF059AA
:1013F00010F4807F11D1F05940F48070F051FFF764
:1014000003FB0546F05910F4807F06D1FFF7FCFA84
:10141000411B03200229F5D98BE0A768012F08D0D2
:101420005146052FD1F88C001CD140F00400C1F8C2
:101430008C005146D1F88C0040F00100C1F88C00BE
:10144000FFF7E2FA054641F288375046D0F88C00A3
:1014500010F0020F28D1FFF7D7FA401BB842F4D999
:10146000032066E020F00100C1F88C00D1F88C0068
:1014700020F00400C1F88C00FFF7C6FA0546002FE3
:10148000E1D141F288375046D0F88C0010F0020FBD
:101490000AD0FFF7B9FA411B0320B942F3D948E05B
:1014A0000410024000100240B9F1000F57461EBF61
:1014B000786D20F080507865A06A002800F0BF8029
:1014C000B8F10C0F38D1012832D0B868E16A00F0C9
:1014D00003028A422CD1216B6FF00F0202EB011143
:1014E00000F070028A4223D1616B00F4FE42B2EB3D
:1014F000012F1DD1A16B00F40032073918BF012163
:101500008A4215D1E16B554A02EA015100F4C0024A
:10151000A1F500118A420BD1216C4FF07E4200F000
:10152000C06002EA016101F17E41884200F08780DB
:10153000012002B0BDE8F0873168022821F08071F7
:1015400031600DD1FFF760FA0546306810F0007F7A
:1015500039D0FFF759FA411B03200229F5D9E8E7F2
:10156000306810F0205F03D1B86820F00300B86045
:10157000B86838490840B860FFF746FA0446306852
:1015800010F0007F5BD0FFF73FFA011B0320022918
:10159000F5D9CEE720F480303060306820F4802028
:1015A0003060FFF731FA0546002F7FF4EAAD30686E
:1015B00010F4003F3FF445AEFFF726FA411B03202D
:1015C0006429F4D9B5E704F12C07DAF808006FF0C4
:1015D0000F058ECF05EB02121F4D28400843E16B2B
:1015E00010431E4A40EA032002EA01514FF07E42B6
:1015F000A1F500110843216C02EA016101F17E416D
:101600000843174901EA47310843CAF8080030681F
:1016100040F080703060DAF8080040F08070CAF85E
:101620000800FFF7F1F90446306810F0007F06D19A
:10163000FFF7EAF9011B03200229F5D979E7002019
:1016400077E700BFD62600080C000020000000202D
:101650000060FEFFFFFFEEFE8C809DF90000E0FFC2
:101660000000FEFF411E0020B0EB116F1CBF0120E7
:101670007047044AF023516003490B7007219060C2
:101680001160704710E000E023ED00E07047704704
:10169000B0B504462068C2690146D0F800C051F8D0
:1016A000083F12F00F0F62D00CF4907503F0010E9A
:1016B00055EA0E0561D0D30718BF1CF4807305D01E
:1016C00001230362E36F43F00103E367930708D547
:1016D000BEF1000F05D002230362E36F43F0040361
:1016E000E367530708D5BEF1000F05D0042303625A
:1016F000E36F43F00203E36713070AD50CF02003FE
:1017000053EA0E0305D008230362E06F40F008009F
:10171000E067E06F002861D002EA0C00800606D581
:10172000226E22B120469047206800F10801E06F48
:10173000096800F0080001F04001084339D0204654
:1017400000F026FD2068816811F0400F2CD08168E0
:1017500021F040018160E06E30B321498163FFF7E1
:101760003BF8D8B3E06E816BBDE8B040084702EAB1
:101770000C01890601D5216E11E0D1020AD513F4BE
:10178000800107D04FF4801101622046BDE8B040CF
:10179000FFF77CBF02EA0C010A0610D5616EE9B1C1
:1017A0002046BDE8B04008472046BDE8B040FFF7FE
:1017B0006EBF2046FFF76BFF0020E0670EE0490692
:1017C0000CD5016821F040010160002060662020F6
:1017D00060672046BDE8B04000F07EB9B0BD00BFF4
:1017E0008121000810B504469CB1606F28B9002023
:1017F00084F87000204600F025F8242060672068F7
:10180000016821F001010160204600F023FD01285C
:1018100001D1012010BD606A10B1204600F014FC17
:101820002068416821F490414160816821F02A01DB
:101830008160016841F0010101602046BDE810406F
:1018400000F06CBC10B586B0044601A81421FEF768
:101850009DFE2068EC4988422AD1DA48416941F46A
:1018600080414161416901F4804100910099016822
:1018700041F00101016001A9006800F00100009041
:101880000098022002904FF4C06001900020039065
:1018900003200490072005904FF09040FEF7D4FFFE
:1018A000252007210022FFF70FF92520FFF7FEF87A
:1018B00006B010BD836F202B06D1012329B122B1C0
:1018C00090F87030012B02D10223D8B270474165E5
:1018D000012180F870100021A0F85820A0F85A20AB
:1018E0000166816861B1B1F1805F0FD0B1F5805FB1
:1018F00014D10269FF23002A08BF40F2FF130AE057
:1019000002697F23002A08BFFF2304E002693F2306
:10191000002A08BF7F23A0F85C3002E00022A0F874
:101920005C200022B1F5805FC2674FF0220282671F
:101930000268936843F00103936001D1016909B122
:10194000064900E00449002380F870300166106801
:1019500040F490701060B8E7AD210008FF21000846
:101960000168A94A914218BF70476F4991F8032254
:101970000D2A01D00A2A09D10122002381F806226A
:10198000B1F804220A4482F8033109E0B1F80432C4
:101990000B4483F80321B1F804220132A1F8042298
:1019A00080B501F203210122FFF784FFBDE88040EA
:1019B000704700BF2DE9FC4704469A4616460F467D
:1019C000606F202806D101252FB126B194F8700050
:1019D000012804D10225E8B202B0BDE8F0874FF03B
:1019E00000090120C4F87C9084F870002120606711
:1019F000FFF70AF8A4F85060A4F852608046A06887
:101A0000B0F5805F05D12669002E0CBFB9463E4671
:101A10001BE03E4619E02046802100224346CDF8D7
:101A200000A000F089FDF0B91EB116F8011B206876
:101A300005E039F8021B206800266FF35F2101855D
:101A4000B4F852000138A4F85200B4F8520000284B
:101A5000E1D12046402100224346CDF800A00025D8
:101A600000F06AFD08B10325B5E7202084F8705026
:101A70006067B0E7436F202B06D1012329B122B163
:101A800090F87030012B02D10223D8B270470023A6
:101A9000A0F85220C367C164012180F87010212191
:101AA000A0F85020436641678168B1F5805F01D19D
:101AB000016909B1074900E00549002380F8703049
:101AC00041660068016841F080010160DDE700BF08
:101AD000C1240008FF240008B0B505461349286852
:101AE000884220D1104C94F80201002818BFB0BDE4
:101AF000B4F800210EA12046FEF736FC2046FEF782
:101B0000E1FCA4F8000182B2284621464FF6FF739B
:101B1000FFF750FF08B1FEF75EFE012084F80201D6
:101B20000020A4F80001B0BDF00000200038014002
:101B30000D0AB7A2CBCDCDEAB3C9A3ACD2D1B7A21F
:101B4000CBCDD7D6B7FBB8F6CAFDCEAAA3BA2564CB
:101B50000D0A0000FEE7000070B586B000201A4CA8
:101B600001224FF46075012605901648016841F086
:101B700080010160016801F0800100910099016815
:101B800041F010010160016801F01001009100991D
:101B9000016841F0010101604FF46071006800F0DC
:101BA0000100009000982046FEF725FF0220CDE9B5
:101BB0000156039601A904902046FEF745FE06B0A3
:101BC00070BD00BF4C1002400010004880B50D48A9
:101BD0000D4A00234FF4E1314FF00C0CC0E90833FB
:101BE000C0E90021C0E90233C0E9043CC0E9063382
:101BF000FFF7F8FD002814BFBDE8804080BDFEF768
:101C0000EABD00BF7000002000380140FEE77047C9
:101C100070470000F8B5894F04460D46F86810F08B
:101C2000030F10D0F868216800F0030201208A42F7
:101C30007ED100297CD0F8686168C0F302100130C1
:101C4000884219D125E0206803280DD0022806D04B
:101C5000012811D1396811F0020F0DD00EE039685A
:101C600011F4806F08D009E0396811F4003F05D104
:101C7000396811F4802F01D1012059E0F9686268B8
:101C80006FF00F0321F0730103EB021208431043BE
:101C9000F860386820F080603860FEF7B5FE0646D0
:101CA000386810F0006F05D0FEF7AEFE801B0228EA
:101CB000F6D936E0CDB16248012D4FF0FF3208BFB2
:101CC00000F1B4603969012D00EA010004F114014A
:101CD00008BF04F11001012D096802EB51014FF01A
:101CE000190208BF1522914006E038695549564A45
:101CF0000840E16802EA41310843A16840EA012056
:101D00003861386840F080603860FEF77DFE054637
:101D1000386810F0006F06D1FEF776FE401B0228EF
:101D2000F6D9032004E0A06939690843386100202E
:101D3000C0B201B0F0BD00BFF8B5C14F04460D46BA
:101D4000F86810F0030F10D0F868216800F0030263
:101D500001208A426ED100296CD0F8686168C0F316
:101D600002100130884219D125E0206803280DD0E7
:101D7000022806D0012811D1396811F0020F0DD0C8
:101D80000EE0396811F4806F08D009E0396811F469
:101D9000003F05D1396811F4802F01D1012049E0BD
:101DA000F96862686FF00F0321F0730103EB021210
:101DB00008431043F860386820F080503860FEF720
:101DC00023FE0646386810F0005F05D0FEF71CFEC3
:101DD000801B0228F6D926E078694DB118494FF0EA
:101DE0007E420840216902EA016101F17E4105E07D
:101DF0001449154A0840E16802EA41310843A168E4
:101E000040EA01207861386840F080503860FEF781
:101E1000FBFD0546386810F0005F06D1FEF7F4FDC3
:101E2000401B0228F6D9032004E060697969084361
:101E300078610020C0B201B0F0BD00BF00100240C8
:101E4000FF80FFF9FF80FDFF0000FEFFBCB51F4DC6
:101E50000446286810F0805F0FD1286840F0805059
:101E60002860286800F0805001900198FEF79AFEE3
:101E7000296821F08051296001E0FEF793FEB0F55A
:101E8000007F06D1812C08D30120A02C88BF02201E
:101E90000EE0802C03D903200AE0002008E0A4F122
:101EA0007000802CB0FA80F04FEA501008BF02207A
:101EB00007490A6822F0070202430A60096801F034
:101EC0000701081A18BF012002B0B0BD5810024027
:101ED00000200240B0B500F00700294C07280AD0C6
:101EE000DFE800F00413181D2C363B00254D20467A
:101EF0008021002203E0234D204680210122A847B3
:101F000020464FF48071012212E01E4D20468021B0
:101F1000012208E01B4D20468021012212E0194DCC
:101F2000204680210022A84720464FF480710022DD
:101F3000A84720464FF4007101221CE0114D2046B5
:101F400080210022A84720464FF4807101220DE035
:101F50000C4D20468021012203E00A4D20468021BD
:101F60000022A84720464FF480710022A84720464F
:101F70004FF4007100222B46BDE8B040184700BF67
:101F800000100048F70900087047FEF741BDF0B5A2
:101F9000B9B028AD202105F10800FEF7F7FA01AC31
:101FA0008421201DFEF7F2FA4FF48030012603272A
:101FB00014212990022028963290CDE9337635916C
:101FC0000721CDE9361038902846FFF7A9F80F20F1
:101FD00000250421CDE9230723A8CDE92555279520
:101FE000FEF796FF204601960F95FEF7E1FD4FF4B0
:101FF0000070FEF7A5FD39B0F0BD000010B50F4828
:10200000104CD0F8801041F47001C0F880100C49D9
:102010000A6842F001020A6000228A600B682340CD
:102020000B604FF48053CB600B6823F480230B606C
:102030008A614FF00061016010BD00BF08ED00E053
:1020400000100240FFFFF6EA416A11F0010F08D0CC
:1020500002685368D0F828C023F4003343EA0C0325
:1020600053608A0708D502685368D0F82CC023F45F
:10207000803343EA0C0353604A0708D5026853686B
:10208000D0F830C023F4802343EA0C0353600A07DE
:1020900008D502685368D0F834C023F4004343EAFB
:1020A0000C035360CA0608D502689368D0F838C09C
:1020B00023F4805343EA0C0393608A0608D5026830
:1020C0009368D0F83CC023F4005343EA0C039360B8
:1020D00080B54A0615D5D0F800E0DEF804C0036CE0
:1020E0002CF48012B3F5801F42EA0302CEF80420DC
:1020F00007D1DEF80420436C22F4C0021A43CEF864
:1021000004200906BDE8804058BF704701684A684E
:10211000806C22F40022104348607047BCB504462E
:102120000020E067FEF770FC05462068016811F0AA
:10213000080F0AD011484FF4001100222B460090DE
:10214000204600F0F9F970B92068006810F0040F1B
:102150000BD00A484FF4800100222B460090204605
:1021600000F0EAF908B1032005E0202100206167B2
:1021700084F87000A167C0B202B0B0BDFFFFFF01DC
:10218000806A0021A0F85A10A0F85210FFF77FBA19
:1021900001680A6822F490720A608A6822F00102DB
:1021A0008A60002101662021816770470168826F83
:1021B000222A1FD1B0F85C208B8C1A40436D23F883
:1021C000022BB0F85A20013AA0F85A204365B0F823
:1021D0005A20002A18BF70470A6822F490720A60D9
:1021E0008A6822F001028A6000210166202181674D
:1021F000FFF7B6BB088B40F0080008837047016802
:10220000826F222A21D1B0F85C20898C1140426D66
:102210001170B0F85A100139A0F85A10416D01310F
:102220004165B0F85A10002918BF704701680A6864
:1022300022F490720A608A6822F001028A6000210A
:10224000016620218167FFF78BBB088B40F00800F7
:102250000883704770B504468C4D8D4E2168A06888
:10226000D4E904231043B14240EA0302E0690B6859
:1022700042EA000203EA050342EA03020A604A68EE
:10228000E36822F4405242EA03024A60A3691CBF99
:10229000256A2B438D6825F430652B438B607D4B7D
:1022A00099421CD07C4B994228D07C4B99422BD030
:1022B0007B4B99422ED0B14232D07A4B994240F0BA
:1022C0007180794A7949126801F5806182F00202D1
:1022D00002F0030242EA820221FA02F532E0724B76
:1022E000022542F241021B6885EA930303F00305CD
:1022F000AB0022FA03F345EA85021FE06A4A022393
:10230000126883EA121210E0674A0223126883EA15
:1023100092120AE0644A0223126883EA122204E05D
:10232000614A0223126883EA922202F0030242F217
:102330004105930042EA820225FA03F35B4DD54042
:10234000B14220D005F01F01B0F5004F0DD10120A2
:10235000082900F29780DFE801F00543469549958A
:1023600095954F00FEF76AFE42E00120082900F231
:102370008980DFE801F005515487578787875C0023
:10238000FEF75CFE50E003F00F050120042D00F283
:1023900079804749DFE805F0031009760E00FEF763
:1023A0004DFE04E008231025CAE7FEF765FE01464E
:1023B00011B948E04FF400416268012002EB42038A
:1023C00099425FD3130399425CD80120042D59D858
:1023D000DFE805F0033B3E584C00FEF72FFE39E0E6
:1023E000FEF738FE04E06168324A08E0FEF744FE7A
:1023F000616840004A0803E061684FF48032480891
:102400001044B0FBF1F04FF6F0710140102938D3C1
:10241000C0F34200084314E0FEF71CFE04E06168CC
:10242000234A07E0FEF728FE61684A0803E0616876
:102430004FF4004248081044B0FBF1F080B210287D
:102440001FD32168C86000201CE01B48002104E065
:10245000FEF712FE6268010E000210EB52004FF010
:10246000000341F10001FDF707FF05E04FF4000014
:1024700000EB5200B0FBF2F0104AA0F5407191421F
:10248000DFD901200021C4E9181170BDF369FFEF05
:10249000008000400044004000480040004C0040E4
:1024A0000050004000380140881002400201020044
:1024B0000024F4000048E801000024F4FFFC0F00B1
:1024C000416F212918BF7047B0F8521069B1C26C32
:1024D000016832F8023B6FF35F230B85C264B0F8EA
:1024E00052100139A0F8521070470068016821F0BD
:1024F00080010160016841F0400101607047416F57
:10250000212918BF7047B0F8521059B1C26C016848
:1025100012F8013B0B85C264B0F852100139A0F8E3
:10252000521070470068016821F080010160016865
:1025300041F04001016070472DE9F843DDF820903B
:10254000984616460F46044609F101052068C06901
:102550003840C01BB0FA80F04009B0421BD1002DBA
:10256000F4D0FEF751FAB9F1000F03D0A0EB080048
:102570004845EBD92068016821F4D0710160816879
:1025800021F00101816020200021606784F8701033
:10259000A067032000E00020C0B201B0BDE8F083D6
:1025A0003548FFF775B800BFFEE700002DE9F84F8A
:1025B000FEF734FAFFF7EBFCFFF7CEFAFFF706FB66
:1025C0002C4CDFF8B4A0012204F203215046FFF79F
:1025D00071F94FF00709002504F203162FA74FF0F9
:1025E000000894F80602012819D1B4F80422204604
:1025F00039463346FDF7B8FE2046FDF763FFA4F8E1
:10260000000182B25046214684F80251FFF732FAA7
:1026100084F8065294F80492A4F80452E1E71FFAF1
:1026200088FB4FF47A71BBFBF1F000FB11B088B965
:10263000204612A11F22FDF764FF2046FDF742FF4E
:102640000121A4F8000182B2504684F8021121460B
:10265000FFF710FA6420BBFBF0F0C007484608BF44
:102660000720C0B2FFF736FC0A20FEF7DDF808F1BC
:102670000108B6E7F0000020700000200D0AC7EB4B
:10268000CAE4C8EBCAFDBEDDA3ACD2D4BBD8B3B597
:10269000BCFCBDE1CAF8A3BA0D0A00000D0ABDD307
:1026A000CAD5B5BDB5C4D7D6B7FBB8F6CAFDCEAA54
:1026B000A3BA25640D0ABDD3CAD5B5BDB5C4CAFD3C
:1026C000BEDDCEAAA3BA25730D0A00004FF04070FC
:1026D000E1EE100A70470000000000000000010257
:1026E00003040607080900000000010203040000BB
:1026F000A0860100400D0300801A060000350C0082
:1027000040420F0080841E0000093D0000127A0044
:102710000024F40000366E010048E801006CDC0281
:10272000402700080000002010000000C40100083D
:102730005027000810000020E8080000E001000811
:1027400010000000010000000000000000093D0032
:040000050800018965
:00000001FF
