:020000040800F2
:10000000100400209D010008870E0008AD0D0008B7
:10001000850E000809020008C10F0008000000005A
:10002000000000000000000000000000150F0008A4
:100030000B02000800000000890E0008170F0008DE
:10004000B7010008B7010008B7010008B7010008B0
:10005000B7010008B7010008B7010008B7010008A0
:10006000B7010008B7010008B7010008B701000890
:10007000B7010008B7010008B7010008B701000880
:10008000B7010008B7010008B7010008B701000870
:10009000B7010008B7010008B70100081502000801
:1000A000B7010008B7010008B7010008B701000850
:1000B000B7010008B7010008B7010008B701000840
:1000C000B7010008B7010008B7010008B701000830
:1000D000B7010008B7010008B7010008B701000820
:1000E0000D020008B7010008B7010008B7010008B9
:1000F000B7010008B7010008B7010008B701000800
:10010000B7010008B7010008B7010008B7010008EF
:10011000B7010008B7010008B7010008B7010008DF
:10012000B7010008B7010008B7010008B7010008CF
:10013000B7010008B7010008B7010008B7010008BF
:10014000B7010008B7010008B7010008B7010008AF
:10015000B7010008B7010008B7010008B70100089F
:10016000B7010008B7010008B7010008B70100088F
:10017000B7010008B70100080000000000000000FF
:10018000B7010008B7010008DFF80CD000F02AF82A
:1001900000480047C30F00081004002006488047AD
:1001A00006480047FEE7FEE7FEE7FEE7FEE7FEE75C
:1001B000FEE7FEE7FEE7FEE7750F0008890100088D
:1001C000D2B201E000F8012B491EFBD27047002299
:1001D000F6E710B513460A4604461946FFF7F0FF46
:1001E000204610BD064C074D06E0E06840F00103D4
:1001F00094E8070098471034AC42F6D3FFF7C8FFE5
:100200003010000850100008FEE770474FF480607F
:1002100000F05CB880B54FF4807000F057F84FF4F0
:100220000070BDE8804000F051B80000B0B5044651
:1002300000F044F90546BD48611C406818BF0444FD
:1002400000F03CF9401BA042FAD3B0BD10B5044603
:100250000A20FFF7EBFFB4F5807F13D0B4F5007FE1
:1002600018D0B4F5806F14D1174C4FF4806120463C
:1002700000F00DF968B904F580608021BDE81040F8
:1002800000F00AB9104C4FF48071204600F0FFF8DE
:1002900088B110BD0C4C4FF40071204600F0F7F807
:1002A000002818BF10BD04F580604FF48071BDE8D0
:1002B000104000F0F1B804F580604FF40071BDE823
:1002C000104000F0E9B800BF000C004803490A687C
:1002D000024214BF08607047FFF7B8BF1404014022
:1002E0002DE9FF4F624A07274FF0000A4FF0000E3A
:1002F0000026904200F138424FEAB22308BF062799
:10030000062B38BF4FEAB22700F12C020092021DE3
:10031000019702920B6833FA06F708BF00F0B4B8F1
:10032000012202FA06F713EA070B00F09480D1F8D5
:1003300004C04CF01004122C11D10EF01C050F2239
:1003400002FA05F44E4A02EA56020244136AA34333
:100350000C6904FA05F52B431362D1F804C003239A
:1003600004680CF00309BCF1120F03FA0AF309FA4E
:100370000AF224EA03046FEA030842EA0402026074
:100380006FD8012202FA0CF212F0061F69D08268BF
:10039000CB68042502EA080203FA0AF31A438260D2
:1003A000029C2CFA05F2236802F00102B240BB4322
:1003B0001A432260C2688B6802EA080203FA0AF351
:1003C0001A43C2605FEACC0245D52C4A0EF00C07F6
:1003D0000F25BD4013461A6842F001021A601A68E0
:1003E000244B02F001021C46039226F00302039BF9
:1003F0002244244B9C4652F80C30AB43019D05FA35
:1004000007F73B4342F80C3022684F6842EA0B037F
:1004100017F4803F08BF22EA0B0317F4003F236064
:10042000626842EA0B0308BF22EA0B0317F4801F3D
:100430006360A26842EA0B0308BF22EA0B030E4A7C
:1004400017F4001FA36015462A6842EA0B0308BF91
:1004500022EA0B032B600AF1020A0EF1040E0136A8
:1004600058E7B9F1030FA5D1009C032599E700BF18
:1004700000180048000401400C04014060100240D4
:10048000FCFFFF7F08FCFFFF1FBCBDE8E08F006999
:10049000084018BF01207047426900F128030A4252
:1004A00008BF00F118031960704700F11803002A13
:1004B00008BF00F128031960704700001B488068DE
:1004C000704700BF194841688268114481607047D5
:1004D00080B5032000F080F8002000F007F808B194
:1004E000012080BD00F024F8002080BD70B50F4EC3
:1004F00004467068B0B14FF47A71B1FBF0F0A449D2
:100500000968B1FBF0F000F03DFC01250F2C0AD882
:1005100048B94FF0FF3021460022002500F030F8A6
:10052000346000E00125284670BD00BF00000020B7
:1005300082B00B48816841F001018160816801F05F
:10054000010101910199016841F080510160006849
:1005500000F0805000900098052002B000F03CB8F8
:1005600058100240002808DB00F01F01012240095A
:1005700002FA01F1014A42F82010704700E100E060
:10058000B0B500F00F031A4D124CB0F1FF3FA3F1CC
:1005900004032B4403F10C03C8BF03192868C0F3FC
:1005A0000220051DC41E80F00700072D4FF0010535
:1005B00038BF0024042828BF042005FA00F00138C1
:1005C000084005FA04F10F31A04011400843000132
:1005D0001870B0BD00E400E005494FF6FF030A685B
:1005E0001A4060F30A22034810430860704700BFB6
:1005F0000CED00E00000FA051A49B0F5007F0A682A
:1006000002F4C0621BD1B2F5007F20D0086801223D
:1006100062F34A20322208605D48006850430D4A68
:10062000B0FBF2F0C0434A6918B1013012F48062A5
:10063000F9D1486910F4806F09D0032008E0B2F5C1
:10064000806F04D00868022262F34A20086000200C
:10065000C0B2704740420F000248006800F4C0601A
:10066000704700BF007000402DE9F0410446884605
:10067000002C00F086806E4E4FF48050315801F00F
:10068000070141450AD2315821F0070141EA08012A
:100690003150305800F00700404572D1206810F00A
:1006A000010F31D06068022806D0032809D13168D3
:1006B00011F0007F0CD164E0316811F4003F07D1E4
:1006C0005FE0316810B1490502D45AE0890758D576
:1006D000B168354621F003010843B060FFF7EEFE34
:1006E000064641F2883728468068616800F00C00B1
:1006F000B0EB810F06D0FFF7E1FE801BB842F2D9C4
:1007000003203FE020682E46810705D5B168A26826
:1007100021F0F0011143B1604FF48051725802F0A2
:10072000070242450AD9725822F0070242EA08023B
:100730007250715801F00701414522D1410705D59A
:10074000B168E26821F4E0611143B160000706D5A9
:10075000B068216920F4605040EAC100B06000F048
:100760001BF8B168094AC1F30311515C01F01F0184
:10077000C8400749086007480068BDE8F041FFF736
:10078000B5BE0120C0B2BDE8F08100BFF00F000887
:100790000C0000200000002025498A68C86812F07B
:1007A0000C0205D00C2A21D100F0030001281DD134
:1007B0000868224B10F0080F19BF08680009D1F82B
:1007C0009400000A002A00F00F0053F8200008BF30
:1007D00070470C2A1CBF00207047CA6802F0030251
:1007E000022A0DD0032A08BF13480AE002F00F00C6
:1007F000042804BF0F487047082816D10E487047D8
:100800000C48D1F80CC0CB68C9680222C1F3416121
:1008100002EB4101C3F306225043CCF30212013232
:10082000B0FBF2F0B0FBF1F070470020D1E700BF61
:10083000001002400024F40000127A0000100008AA
:100840002DE9FC470446002C00F00282DC49DD4E15
:1008500048688A4600F00C08886800F00309207890
:10086000C00629D42078C0077BD0B8F1080F70D01B
:10087000B8F10C0F08BFB9F1030F6AD06768B7F57C
:10088000803F07D03068B7F5A02F40F0138240F4C6
:1008900080203060306840F480303060FFF70EFE1A
:1008A0000546306810F4003F5BD1FFF707FE411B9F
:1008B00003206429F5D9CCE1B8F1000F1CD0B8F1C0
:1008C0000C0F08BFB9F1010F16D0A16930680029DB
:1008D00000F09B8040F001003060FFF7EFFD05461F
:1008E000306810F0020F40F0A280FFF7E7FD411BD7
:1008F00003200229F4D9ACE13068554610F0020F0C
:1009000003D0A069002800F0A381206A316811F0AB
:10091000080F06BFD5F890100909316801F0F00101
:10092000884249D900F0B2FA002840F0918130683D
:1009300040F0080030603068216A20F0F000084381
:1009400030602868E16920F47F4040EA0120286097
:1009500047E0306810F4003F03D06068002800F0E2
:1009600077812078800740F18E80B8F1040F1AD08B
:10097000B8F10C0F08BFB9F1020F14D0E16830686C
:10098000002967D040F480703060FFF797FD05467E
:10099000306810F4806F6ED1FFF790FD411B03208B
:1009A0000229F5D955E13068524610F4806F63D0C2
:1009B000E068002860D14BE1316841F00801316006
:1009C000316821F0F001014331602968E26921F4C6
:1009D0007F4141EA0221296000F058FA002840F0E6
:1009E0003781FFF7D9FE6968DE4AC1F30311515C14
:1009F00001F01F01C840DC490860DC480068FFF7CF
:100A000075FD002840F025812CE720F001003060C2
:100A1000FFF754FD0546306810F0020F3FF422AF97
:100A2000FFF74CFD411B03200229F4D911E1306886
:100A3000524640F0080030603068216A20F0F00033
:100A4000084330601068E16920F47F4040EA0120EB
:100A5000106007E720F480703060FFF72FFD054637
:100A6000306810F4806F0ED0FFF728FD411B032083
:100A70000229F5D9EDE052461068216920F0F850BE
:100A800040EA0160106020785746000729D5616967
:100A9000D7F8900089B140F00100C7F89000FFF747
:100AA0000DFD0546D7F8900010F0020F19D1FFF7A1
:100AB00005FD401B0228F5D962E020F00100C7F8CF
:100AC0009000FFF7FBFC05465746D7F8900010F062
:100AD000020F06D0FFF7F2FC411B03200229F3D9D5
:100AE000B7E02078400777D5786D10F0805F0BD1A4
:100AF000786D4FF0010940F080507865786D00F016
:100B000080500190019801E04FF00009984FF05992
:100B100010F4807F11D1F05940F48070F051FFF74C
:100B2000CDFC0546F05910F4807F06D1FFF7C6FCD6
:100B3000411B03200229F5D98BE0A768012F08D0BB
:100B40005146052FD1F88C001CD140F00400C1F8AB
:100B50008C005146D1F88C0040F00100C1F88C00A7
:100B6000FFF7ACFC054641F288375046D0F88C00C0
:100B700010F0020F28D1FFF7A1FC401BB842F4D9B6
:100B8000032066E020F00100C1F88C00D1F88C0051
:100B900020F00400C1F88C00FFF790FC0546002F00
:100BA000E1D141F288375046D0F88C0010F0020FA6
:100BB0000AD0FFF783FC411B0320B942F3D948E078
:100BC0000410024000100240B9F1000F57461EBF4A
:100BD000786D20F080507865A06A002800F0BF8012
:100BE000B8F10C0F38D1012832D0B868E16A00F0B2
:100BF00003028A422CD1216B6FF00F0202EB01112C
:100C000000F070028A4223D1616B00F4FE42B2EB25
:100C1000012F1DD1A16B00F40032073918BF01214B
:100C20008A4215D1E16B554A02EA015100F4C00233
:100C3000A1F500118A420BD1216C4FF07E4200F0E9
:100C4000C06002EA016101F17E41884200F08780C4
:100C5000012002B0BDE8F0873168022821F08071E0
:100C600031600DD1FFF72AFC0546306810F0007F97
:100C700039D0FFF723FC411B03200229F5D9E8E70F
:100C8000306810F0205F03D1B86820F00300B8602E
:100C9000B86838490840B860FFF710FC044630686F
:100CA00010F0007F5BD0FFF709FC011B0320022935
:100CB000F5D9CEE720F480303060306820F4802011
:100CC0003060FFF7FBFB0546002F7FF4EAAD30688C
:100CD00010F4003F3FF445AEFFF7F0FB411B03204B
:100CE0006429F4D9B5E704F12C07DAF808006FF0AD
:100CF0000F058ECF05EB02121F4D28400843E16B14
:100D000010431E4A40EA032002EA01514FF07E429E
:100D1000A1F500110843216C02EA016101F17E4155
:100D20000843174901EA47310843CAF80800306808
:100D300040F080703060DAF8080040F08070CAF847
:100D40000800FFF7BBFB0446306810F0007F06D1B7
:100D5000FFF7B4FB011B03200229F5D979E7002036
:100D600077E700BFF00F00080C0000200000002013
:100D70000060FEFFFFFFEEFE8C809DF90000E0FFAB
:100D80000000FEFF411E0020B0EB116F1CBF0120D0
:100D90007047044AF023516003490B7007219060AB
:100DA0001160704710E000E023ED00E0FEE7000076
:100DB00070B586B00020314C01224FF460750126D9
:100DC00005902D48016841F080010160016801F043
:100DD000800100910099016841F0100101600168F3
:100DE00001F0100100910099016841F008010160D3
:100DF000016801F0080100910099016841F00101CA
:100E00000160016801F0010100910099016841F061
:100E1000020101604FF46071006800F00200009070
:100E200000982046FFF741FBCDE9015601AD0220B5
:100E30000396049020462946FFF752FA10482946A7
:100E400002904FF4E0600190A4F580600396FFF7F4
:100E500047FA172003210022FFF792FB1720FFF724
:100E600081FB282003210122FFF78AFB2820FFF7BE
:100E700079FB06B070BD00BF4C1002400010004866
:100E800000002110FEE7704770470000BCB51F4D01
:100E90000446286810F0805F0FD1286840F0805029
:100EA0002860286800F0805001900198FFF7D4FB7B
:100EB000296821F08051296001E0FFF7CDFBB0F5F2
:100EC000007F06D1812C08D30120A02C88BF0220EE
:100ED0000EE0802C03D903200AE0002008E0A4F1F2
:100EE0007000802CB0FA80F04FEA501008BF02204A
:100EF00007490A6822F0070202430A60096801F004
:100F00000701081A18BF012002B0B0BD58100240F6
:100F1000002002407047FFF7D5BAB0B596B005ACD7
:100F2000202104F10800FFF752F94FF4803002212C
:100F300003250690012005900F91CDE91050142053
:100F400012900720CDE9130120461591FFF778FC98
:100F50000F200421CDE900050020CDE90200049016
:100F60006846FFF781FB4FF40070FFF745FB16B0B2
:100F7000B0BD000010B50F48104CD0F8801041F4FF
:100F80007001C0F880100C490A6842F001020A6042
:100F900000228A600B6823400B604FF48053CB60C3
:100FA0000B6823F480230B608A614FF000610160BD
:100FB00010BD00BF08ED00E000100240FFFFF6EAA0
:100FC000FEE780B5FFF784FAFFF7A7FFFFF7F0FE13
:100FD000FEE702E008C8121F08C1002AFAD17047D4
:100FE0007047002001E001C1121F002AFBD17047A9
:100FF00000000000000000000102030406070809C9
:10100000A0860100400D0300801A060000350C0088
:1010100040420F0080841E0000093D0000127A004B
:101020000024F40000366E010048E801006CDC0288
:10103000501000080000002010000000D20F00082F
:10104000601000081000002000040000E20F0008FB
:1010500010000000010000000000000000093D0039
:040000050800018965
:00000001FF
