:020000040800F2
:10000000100400209D010008430D0008BD0C0008ED
:10001000410D0008090200082D0F00080000000033
:10002000000000000000000000000000810E000839
:100030000B02000800000000450D0008830E0008B8
:10004000B7010008B7010008B7010008B7010008B0
:10005000B7010008B7010008B7010008B7010008A0
:10006000B7010008B7010008B7010008B701000890
:10007000B7010008B7010008B7010008B701000880
:10008000B7010008B7010008B7010008B701000870
:10009000B7010008B7010008B7010008B701000860
:1000A000B7010008B7010008B7010008B701000850
:1000B000B7010008B7010008B7010008B701000840
:1000C000B7010008B7010008B7010008B701000830
:1000D000B7010008B7010008B7010008B701000820
:1000E000B7010008B7010008B7010008B701000810
:1000F000B7010008B7010008B7010008B701000800
:10010000B7010008B7010008B7010008B7010008EF
:10011000B7010008B7010008B7010008B7010008DF
:10012000B7010008B7010008B7010008B7010008CF
:10013000B7010008B7010008B7010008B7010008BF
:10014000B7010008B7010008B7010008B7010008AF
:10015000B7010008B7010008B7010008B70100089F
:10016000B7010008B7010008B7010008B70100088F
:10017000B7010008B70100080000000000000000FF
:10018000B7010008B7010008DFF80CD000F02AF82A
:10019000004800472F0F0008100400200648804741
:1001A00006480047FEE7FEE7FEE7FEE7FEE7FEE75C
:1001B000FEE7FEE7FEE7FEE7E10E00088901000822
:1001C000D2B201E000F8012B491EFBD27047002299
:1001D000F6E710B513460A4604461946FFF7F0FF46
:1001E000204610BD064C074D06E0E06840F00103D4
:1001F00094E8070098471034AC42F6D3FFF7C8FFE5
:10020000B00F0008D00F0008FEE77047B0B50446F5
:1002100000F0ECF805469148611C406818BF0444A2
:1002200000F0E4F8401BA042FAD3B0BD2DE9FF4F27
:10023000624A07274FF0000A4FF0000E0026904256
:1002400000F138424FEAB22308BF0627062B38BF19
:100250004FEAB22700F12C020092021D0197029290
:100260000B6833FA06F708BF00F0B4B8012202FAAF
:1002700006F713EA070B00F09480D1F804C04CF0A5
:100280001004122C11D10EF01C050F2202FA05F4F5
:100290004E4A02EA56020244136AA3430C6904FA66
:1002A00005F52B431362D1F804C0032304680CF056
:1002B0000309BCF1120F03FA0AF309FA0AF224EA5D
:1002C00003046FEA030842EA040202606FD80122C5
:1002D00002FA0CF212F0061F69D08268CB6804257E
:1002E00002EA080203FA0AF31A438260029C2CFA1B
:1002F00005F2236802F00102B240BB431A432260B8
:10030000C2688B6802EA080203FA0AF31A43C26061
:100310005FEACC0245D52C4A0EF00C070F25BD40F4
:1003200013461A6842F001021A601A68244B02F060
:1003300001021C46039226F00302039B2244244B35
:100340009C4652F80C30AB43019D05FA07F73B433E
:1003500042F80C3022684F6842EA0B0317F4803FE2
:1003600008BF22EA0B0317F4003F2360626842EAE9
:100370000B0308BF22EA0B0317F4801F6360A26817
:1003800042EA0B0308BF22EA0B030E4A17F4001FD0
:10039000A36015462A6842EA0B0308BF22EA0B0352
:1003A0002B600AF1020A0EF1040E013658E7B9F18A
:1003B000030FA5D1009C032599E700BF0018004852
:1003C000000401400C04014060100240FCFFFF7F6C
:1003D00008FCFFFF1FBCBDE8E08F00F11803002AF6
:1003E00008BF00F128031960704700001B488068AF
:1003F000704700BF194841688268114481607047A6
:1004000080B5032000F070F8002000F007F808B174
:10041000012080BD00F024F8002080BD70B50F4E93
:1004200004467068B0B14FF47A71B1FBF0F09C49AA
:100430000968B1FBF0F000F02DFC01250F2C0AD863
:1004400048B94FF0FF3021460022002500F020F887
:10045000346000E00125284670BD00BF0000002088
:1004600082B00A48816841F001018160816801F031
:10047000010101910199016841F08051016000681A
:1004800000F080500090009802B070475810024071
:10049000B0B500F00F031A4D124CB0F1FF3FA3F1BD
:1004A00004032B4403F10C03C8BF03192868C0F3ED
:1004B0000220051DC41E80F00700072D4FF0010526
:1004C00038BF0024042828BF042005FA00F00138B2
:1004D000084005FA04F10F31A04011400843000123
:1004E0001870B0BD00E400E005494FF6FF030A684C
:1004F0001A4060F30A22034810430860704700BFA7
:100500000CED00E00000FA051A49B0F5007F0A681A
:1005100002F4C0621BD1B2F5007F20D0086801222E
:1005200062F34A20322208605D48006850430D4A59
:10053000B0FBF2F0C0434A6918B1013012F4806296
:10054000F9D1486910F4806F09D0032008E0B2F5B2
:10055000806F04D00868022262F34A2008600020FD
:10056000C0B2704740420F000248006800F4C0600B
:10057000704700BF007000402DE9F04104468846F6
:10058000002C00F086806E4E4FF48050315801F000
:10059000070141450AD2315821F0070141EA08011B
:1005A0003150305800F00700404572D1206810F0FB
:1005B000010F31D06068022806D0032809D13168C4
:1005C00011F0007F0CD164E0316811F4003F07D1D5
:1005D0005FE0316810B1490502D45AE0890758D567
:1005E000B168354621F003010843B060FFF7FEFE15
:1005F000064641F2883728468068616800F00C00A2
:10060000B0EB810F06D0FFF7F1FE801BB842F2D9A4
:1006100003203FE020682E46810705D5B168A26817
:1006200021F0F0011143B1604FF48051725802F093
:10063000070242450AD9725822F0070242EA08022C
:100640007250715801F00701414522D1410705D58B
:10065000B168E26821F4E0611143B160000706D59A
:10066000B068216920F4605040EAC100B06000F039
:100670001BF8B168094AC1F30311515C01F01F0175
:10068000C8400749086007480068BDE8F041FFF727
:10069000C5BE0120C0B2BDE8F08100BF700F0008E8
:1006A0000C0000200000002025498A68C86812F06C
:1006B0000C0205D00C2A21D100F0030001281DD125
:1006C0000868224B10F0080F19BF08680009D1F81C
:1006D0009400000A002A00F00F0053F8200008BF21
:1006E00070470C2A1CBF00207047CA6802F0030242
:1006F000022A0DD0032A08BF13480AE002F00F00B7
:10070000042804BF0F487047082816D10E487047C8
:100710000C48D1F80CC0CB68C9680222C1F3416112
:1007200002EB4101C3F306225043CCF30212013223
:10073000B0FBF2F0B0FBF1F070470020D1E700BF52
:10074000001002400024F40000127A00800F00081C
:100750002DE9FC470446002C00F00282DC49DD4E06
:1007600048688A4600F00C08886800F00309207881
:10077000C00629D42078C0077BD0B8F1080F70D00C
:10078000B8F10C0F08BFB9F1030F6AD06768B7F56D
:10079000803F07D03068B7F5A02F40F0138240F4B7
:1007A00080203060306840F480303060FFF71EFEFB
:1007B0000546306810F4003F5BD1FFF717FE411B80
:1007C00003206429F5D9CCE1B8F1000F1CD0B8F1B1
:1007D0000C0F08BFB9F1010F16D0A16930680029CC
:1007E00000F09B8040F001003060FFF7FFFD054600
:1007F000306810F0020F40F0A280FFF7F7FD411BB8
:1008000003200229F4D9ACE13068554610F0020FFC
:1008100003D0A069002800F0A381206A316811F09C
:10082000080F06BFD5F890100909316801F0F001F2
:10083000884249D900F088FA002840F09181306858
:1008400040F0080030603068216A20F0F000084372
:1008500030602868E16920F47F4040EA0120286088
:1008600047E0306810F4003F03D06068002800F0D3
:1008700077812078800740F18E80B8F1040F1AD07C
:10088000B8F10C0F08BFB9F1020F14D0E16830685D
:10089000002967D040F480703060FFF7A7FD05465F
:1008A000306810F4806F6ED1FFF7A0FD411B03206C
:1008B0000229F5D955E13068524610F4806F63D0B3
:1008C000E068002860D14BE1316841F008013160F7
:1008D000316821F0F001014331602968E26921F4B7
:1008E0007F4141EA0221296000F02EFA002840F001
:1008F0003781FFF7D9FE6968DE4AC1F30311515C05
:1009000001F01F01C840DC490860DC480068FFF7BF
:1009100085FD002840F025812CE720F001003060A3
:10092000FFF764FD0546306810F0020F3FF422AF78
:10093000FFF75CFD411B03200229F4D911E1306867
:10094000524640F0080030603068216A20F0F00024
:10095000084330601068E16920F47F4040EA0120DC
:10096000106007E720F480703060FFF73FFD054618
:10097000306810F4806F0ED0FFF738FD411B032064
:100980000229F5D9EDE052461068216920F0F850AF
:1009900040EA0160106020785746000729D5616958
:1009A000D7F8900089B140F00100C7F89000FFF738
:1009B0001DFD0546D7F8900010F0020F19D1FFF782
:1009C00015FD401B0228F5D962E020F00100C7F8B0
:1009D0009000FFF70BFD05465746D7F8900010F042
:1009E000020F06D0FFF702FD411B03200229F3D9B5
:1009F000B7E02078400777D5786D10F0805F0BD195
:100A0000786D4FF0010940F080507865786D00F006
:100A100080500190019801E04FF00009984FF05983
:100A200010F4807F11D1F05940F48070F051FFF73D
:100A3000DDFC0546F05910F4807F06D1FFF7D6FCA7
:100A4000411B03200229F5D98BE0A768012F08D0AC
:100A50005146052FD1F88C001CD140F00400C1F89C
:100A60008C005146D1F88C0040F00100C1F88C0098
:100A7000FFF7BCFC054641F288375046D0F88C00A1
:100A800010F0020F28D1FFF7B1FC401BB842F4D997
:100A9000032066E020F00100C1F88C00D1F88C0042
:100AA00020F00400C1F88C00FFF7A0FC0546002FE1
:100AB000E1D141F288375046D0F88C0010F0020F97
:100AC0000AD0FFF793FC411B0320B942F3D948E059
:100AD0000410024000100240B9F1000F57461EBF3B
:100AE000786D20F080507865A06A002800F0BF8003
:100AF000B8F10C0F38D1012832D0B868E16A00F0A3
:100B000003028A422CD1216B6FF00F0202EB01111C
:100B100000F070028A4223D1616B00F4FE42B2EB16
:100B2000012F1DD1A16B00F40032073918BF01213C
:100B30008A4215D1E16B554A02EA015100F4C00224
:100B4000A1F500118A420BD1216C4FF07E4200F0DA
:100B5000C06002EA016101F17E41884200F08780B5
:100B6000012002B0BDE8F0873168022821F08071D1
:100B700031600DD1FFF73AFC0546306810F0007F78
:100B800039D0FFF733FC411B03200229F5D9E8E7F0
:100B9000306810F0205F03D1B86820F00300B8601F
:100BA000B86838490840B860FFF720FC0446306850
:100BB00010F0007F5BD0FFF719FC011B0320022916
:100BC000F5D9CEE720F480303060306820F4802002
:100BD0003060FFF70BFC0546002F7FF4EAAD30686C
:100BE00010F4003F3FF445AEFFF700FC411B03202B
:100BF0006429F4D9B5E704F12C07DAF808006FF09E
:100C00000F058ECF05EB02121F4D28400843E16B04
:100C100010431E4A40EA032002EA01514FF07E428F
:100C2000A1F500110843216C02EA016101F17E4146
:100C30000843174901EA47310843CAF808003068F9
:100C400040F080703060DAF8080040F08070CAF838
:100C50000800FFF7CBFB0446306810F0007F06D198
:100C6000FFF7C4FB011B03200229F5D979E7002017
:100C700077E700BF700F00080C0000200000002084
:100C80000060FEFFFFFFEEFE8C809DF90000E0FF9C
:100C90000000FEFF411E0020B0EB116F1CBF0120C1
:100CA0007047044AF023516003490B70072190609C
:100CB0001160704710E000E023ED00E0FEE7000067
:100CC00070B586B000206C4C01224FF4607501268F
:100CD00005901A48016841F080010160016801F047
:100CE000800100910099016841F0100101600168E4
:100CF00001F0100100910099016841F001010160CB
:100D0000016801F0010100910099016841F00201C0
:100D100001604FF46071006800F0020000900098DC
:100D20002046FFF75AFB0220CDE90156039601A9A0
:100D300004902046FFF77AFA06B070BD4C100240CE
:100D4000FEE7704770470000BCB51F4D0446286899
:100D500010F0805F0FD1286840F08050286028682C
:100D600000F0805001900198FFF7FEFB296821F008
:100D70008051296001E0FFF7F7FBB0F5007F06D155
:100D8000812C08D30120A02C88BF02200EE0802CEB
:100D900003D903200AE0002008E0A4F17000802CB1
:100DA000B0FA80F04FEA501008BF022007490A68E5
:100DB00022F0070202430A60096801F00701081ADD
:100DC00018BF012002B0B0BD581002400020024000
:100DD000B0B5294C06280AD8DFE800F00413181D26
:100DE0002C363B00254D20468021002203E0234D78
:100DF000204680210122A84720464FF4807101221D
:100E000012E01E4D20468021012208E01B4D2046A5
:100E10008021012212E0194D204680210022A8479E
:100E200020464FF480710022A84720464FF40071FD
:100E300001221CE0114D204680210022A8472046B7
:100E40004FF4807101220DE00C4D204680210122DB
:100E500003E00A4D204680210022A84720464FF497
:100E600080710022A84720464FF4007100222B46D3
:100E7000BDE8B040184700BF00100048DB03000881
:100E80007047FFF7B7BAB0B596B005AC202104F1B2
:100E90000800FFF79CF94FF48030022103250690EB
:100EA000012005900F91CDE91050142012900720D9
:100EB000CDE9130120461591FFF74AFC0F200421CC
:100EC000CDE900050020CDE9020004906846FFF757
:100ED00053FB4FF40070FFF717FB16B0B0BD0000D6
:100EE00010B50F48104CD0F8801041F47001C0F8D4
:100EF00080100C490A6842F001020A6000228A60F0
:100F00000B6823400B604FF48053CB600B6823F4D5
:100F100080230B608A614FF00061016010BD00BF4B
:100F200008ED00E000100240FFFFF6EAFEE710B512
:100F3000FFF766FAFFF7A7FFFFF7C2FE002404F0F1
:100F40000700FFF745FF4FF47A70FFF75FF90134B0
:100F5000F5E702E008C8121F08C1002AFAD170475D
:100F60007047002001E001C1121F002AFBD1704729
:100F70000000000000000000010203040607080949
:100F8000A0860100400D0300801A060000350C0009
:100F900040420F0080841E0000093D0000127A00CC
:100FA0000024F40000366E010048E801006CDC0209
:100FB000D00F00080000002010000000520F0008B1
:100FC000E00F00081000002000040000620F00087D
:100FD00010000000010000000000000000093D00BA
:040000050800018965
:00000001FF
